:020000040800F2
:10000000F0080020B5020008553E000861390008DC
:1000100000000000000000000000000000000000E0
:100020000000000000000000000000004540000843
:100030000000000000000000573E0008914000084A
:10004000C7020008C7020008C7020008C70200086C
:10005000C7020008C7020008C7020008791F00088D
:10006000C7020008C7020008C7020008C70200084C
:10007000C7020008C7020008C7020008C70200083C
:10008000C7020008C7020008C702000800000000FD
:10009000C7020008C7020008C7020008C70200081C
:1000A000C7020008C7020008C7020008C70200080C
:1000B000C7020008C7020008C7020008C7020008FC
:1000C00000F002F800F0CBF812A030C8083824186D
:1000D0002D18AC4201D100F0C2F80FCCA246AB46BD
:1000E0000CA730CF2D1B083F3F197C427F1E544484
:1000F0002D090426F441641EAC4201D300F0AFF890
:100100000126334200D0FB1A3343984754465D46DC
:10011000DFE70000E850000008510000103A02D369
:1001200078C878C1FAD8520701D330C830C101D598
:1001300004680C6070470000704700000023002432
:1001400000250026103A01D378C1FBD8520700D30E
:1001500030C100D50B60704710B56E2902D100F098
:1001600059FB10BD702902D100F093FC10BD662927
:1001700002D104F09BFF10BD652902D104F096FF67
:1001800010BD672902D104F091FF10BD612902D191
:1001900004F094FF10BD03681B0A01D380231943A8
:1001A000692902D100F000FB10BD642902D100F0E2
:1001B000FBFA10BD752902D100F0F6FA10BD6F29C7
:1001C00002D100F011FC10BD782902D100F04EFCE4
:1001D00010BDE92902D100F0ADFB10BDE42902D128
:1001E00000F0A8FB10BDF52902D100F0A3FB10BD63
:1001F000EF2902D100F004FC10BDF82902D100F073
:1002000043FC10BD0368DB0901D380231943632934
:1002100002D101F026F910BD732902D101F029F9AC
:1002200010BDE32902D101F033F910BDF32902D149
:1002300001F036F910BD002010BD1FB501F090F996
:1002400004000020002104F01BFF401C606000201F
:10025000002104F0FFFEE0601FBD10B510BD01F0ED
:1002600058F91146FFF7E9FF04F0E4FC01F0ECFC5B
:1002700003B4FFF7F2FF03BC01F04AFD70B5054679
:100280000C46164602E00FCC0FC5103E102EFAD2D7
:10029000082E02D303CC03C5083E042E07D301CC9D
:1002A00001C5361F03E021782970641C6D1C761E81
:1002B000F9D270BD0748804707480047FEE7FEE7D0
:1002C000FEE7FEE7FEE7FEE704480549054A064B60
:1002D0007047000099400008C1000008F0020020AB
:1002E000F0080020F0040020F0040020FEB50446D1
:1002F00010460D46184373D0A6468C460020A41A1B
:1003000001469D4167D36646002701243D46B61A43
:100310009D4102D313463A462124654676462F0472
:10032000360C3E432D0CB61A9D4104D3150C1B040C
:100330002B4312041034654676462F06360A3E4398
:100340002D0AB61A9D4104D3150E1B022B4312022F
:100350000834654676462F0736093E432D09B61AFE
:100360009D4104D3150F1B012B431201241D65462B
:100370007646AF07B6083E43AD08B61A9D4104D392
:10038000950F9B002B439200A41C65467646EF0711
:1003900076083E436D08B61A9D411AD392185B4108
:1003A000641C16E00018764665464941B71A9D411F
:1003B0000191009009D36046B11A98418E46844657
:1003C000009801990025401C6941DD0752082A4325
:1003D0005B08641EE6D57246634603B0F0BDFFE7D6
:1003E0002046284307D00020C0430146C046C046EF
:1003F00022462B46F1E700200146F7E71CB50C46E4
:10040000064B7B4469460090204600F01CFA0446E7
:100410000020694600F02AFA20461CBD670400004F
:10042000F8B5042A2CD3830712D00B78491C03702B
:10043000401C521E83070BD00B78491C0370401CD4
:10044000521E830704D00B78491C0370401C521EB7
:100450008B079B0F05D0C91ADF002023DE1B08C9BC
:100460000AE0FFF70BFFF8BD1D4608C9FD401C461A
:10047000B4402C4310C0121F042AF5D2F308C91A45
:10048000521EF0D40B78491C0370401C521EEAD453
:100490000B78491C0370401C012AE4D409780170D0
:1004A000F8BD01E004C0091F0429FBD28B0701D568
:1004B0000280801CC90700D00270704700290BD051
:1004C000C30702D00270401C491E022904D38307CF
:1004D00002D50280801C891EE3E70022EEE700229D
:1004E000DFE70000002203098B4273D3030A8B422B
:1004F00058D3030B8B423CD3030C8B4221D312E025
:1005000003460B437FD4002243088B4274D3030974
:100510008B425FD3030A8B4244D3030B8B4228D315
:10052000030C8B420DD30902FF2212BA030C8B423B
:1005300002D31212090265D0030B8B4219D300E0DB
:10054000090AC30B8B4201D3CB03C01A5241830B60
:100550008B4201D38B03C01A5241430B8B4201D310
:100560004B03C01A5241030B8B4201D30B03C01A39
:100570005241C30A8B4201D3CB02C01A5241830AB3
:100580008B4201D38B02C01A5241430A8B4201D3E2
:100590004B02C01A5241030A8B4201D30B02C01A0C
:1005A0005241CDD2C3098B4201D3CB01C01A524173
:1005B00083098B4201D38B01C01A524143098B42FC
:1005C00001D34B01C01A524103098B4201D30B01E5
:1005D000C01A5241C3088B4201D3CB00C01A52410A
:1005E00083088B4201D38B00C01A524143088B42CF
:1005F00001D34B00C01A5241411A00D20146524168
:10060000104670475DE0CA0F00D04942031000D386
:10061000404253409C46002203098B422DD3030ADB
:100620008B4212D38901FC2212BA030A8B420CD3EB
:10063000890192118B4208D3890192118B4204D314
:1006400089013AD0921100E08909C3098B4201D394
:10065000CB01C01A524183098B4201D38B01C01ACE
:10066000524143098B4201D34B01C01A5241030945
:100670008B4201D30B01C01A5241C3088B4201D3F4
:10068000CB00C01A524183088B4201D38B00C01AA1
:100690005241D9D243088B4201D34B00C01A524178
:1006A000411A00D201465241104663465B1001D305
:1006B0004042002B00D54942704763465B1000D38F
:1006C000404201B50449002802DC491C084000E012
:1006D0000846C046C04602BDFFFFFF7F7047704717
:1006E000704770B5044685690068C10601D530269B
:1006F00000E02026C00707D070BD62683046A168C0
:100700009047206A401C20626D1EF6D570BD70B502
:10071000044685690078C00707D170BD6268A1688A
:1007200020209047206A401C20626D1EF6D570BDC7
:1007300009684A0501D540B27047C905FCD500B229
:10074000704709684A0501D5C0B27047C905FCD594
:1007500080B2704770B50C460546012A05D028784E
:10076000800600D5EA69002302E0012305E05B1C56
:10077000934202D2E05C0028F9D1A869E618C01AB9
:10078000A861286AC01828622846FFF7AAFF04E07B
:100790006A682078A968641C9047B442F8D3284658
:1007A000FFF7B5FF70BD0000F7B50025752910688B
:1007B000009914A611D0FFF7BBFF002802DA4042CF
:1007C00011A608E0009909688A0701D50FA602E082
:1007D000490704D50EA6012501E0FFF7B2FF009FEF
:1007E0000024243704E000F080FE30313955641CC9
:1007F0000028F8D12B4632462146009800F057FADF
:10080000FEBD0000000000002D0000002B000000D5
:100810002000000011680268006A530501D50870C5
:1008200009E0D30501D5088005E0130602D5C217FB
:1008300005C100E0086001207047000001694A1C02
:1008400002610878704700B58FB0029100210591D0
:10085000054901937944039111460490684600F0DC
:1008600025F90FB000BD0000E5FFFFFF0A6810701A
:10087000521C0A6070470000F7B50446154686B062
:100880002B487844002703C83E460090019111E0B0
:1008900007986A467100415A02A800F005FE411C03
:1008A00007D02178890603D5E269391891420ED81C
:1008B0003F18761C2078800602D5E069B84206DD34
:1008C000AE42E5DB07987100405A0028E0D1A069EC
:1008D000C01BA0612046FFF704FF154878445A3832
:1008E00003C800900020019116E041006A46079875
:1008F000415A02A800F0D8FD0590401C0AD00025FE
:1009000005E0626802A8A168405D90476D1C0598EB
:100910008542F6D30498401CB0420490E5DB206A7F
:10092000C01920622046FFF7F2FE09B0F0BD0000BA
:1009300046480000F7B5D21D0025D20815A6D20002
:10094000F52905CA11D0002A05DA0021404291415B
:1009500011A60A4608E0009909688B0701D50FA681
:1009600002E0490701D50EA601251146009F00248B
:10097000243704E000F05EF930323A55641C024638
:100980000A43F7D12B4632462146009800F08FF9F2
:10099000FEBD0000000000002D0000002B00000044
:1009A0002000000070B504460021243408E05507FB
:1009B000D2086D0F303565545D072A43DB08491CAA
:1009C00015461D43F3D10468002310A2250708D55E
:1009D00020252C400C4304D0C46901230CA2641EC2
:1009E000C46100F064F970BD10B50446214610687A
:1009F000FFF7A7FE002302462046FFF7D3FF10BDF6
:100A0000D21DD108C9000CC9CCE7000000000000CD
:100A100030000000F8B50F460188090502D5224CC8
:100A20007C4402E0204C7C440E34054600212435F1
:100A300008E016071209360FA65D6E541E073243F2
:100A40001B09491C16461E43F3D122460478002395
:100A5000240705D5702F06D0002901D002231132BA
:100A600000F025F9F8BD01231032F9E770B504460E
:100A70000D4621461068FFF764FE00230246294612
:100A80002046FFF7C7FF70BDD21DD308DB000CCB9B
:100A9000C0E730B4036820241268234303600823AE
:100AA000C36130BC0023B5E7B0460000F3B504468F
:100AB000002081B020622046E1688847002872D07B
:100AC000252802D06268A168ABE0594F00267F4418
:100AD0002046E16888472028054608DB312D06D2EC
:100AE000781920380078002801D00643F0E7B007D5
:100AF00001D5042086430020E0610746A0612A2D2D
:100B00000AD0284604F09EFA002827D0B800001921
:100B1000303D0090856119E00298BA00121902C8B0
:100B2000916102902046E1688847012F054617D160
:100B3000E06900281FDA202086431CE000980A2183
:100B40008069484300994019303888612046E1683F
:100B50008847054604F076FA0028EFD1012F0AD025
:100B60002E2D08D12046E1688847054620200643FF
:100B70007F1C022FC3DBA069002803DA4042A0617A
:100B800001200643F00701D0102086436C2D0BD0C6
:100B9000682D09D04C2D3CD06A2D38D0742D38D01A
:100BA0007A2D36D016E040E0E1682F46204688478F
:100BB000B842054609D16C2F29D001208002E16896
:100BC000064320468847054604E06C2F1DD0FF20D1
:100BD00001300643002D28D028464138192803D873
:100BE0000120C00206432035204626602946029A8D
:100BF0001646FFF7B1FA002810D001280BD0F61DD9
:100C0000F008C0000830029055E74020E1E780205E
:100C1000D5E70020D3E7361D02964CE762682846E8
:100C2000A1689047206A401C44E7206AFEBD00008E
:100C30002A4600000B4670B5024689078008084323
:100C400019469D08141AA9412509080705430809F2
:100C50002C194841250A01060D43010A2C1941416E
:100C6000200C0D0428430D0C00194D4100214019A2
:100C70004D41C00869070843E908840F8D002543EA
:100C8000840024184D4124196D41121BAB4107E02B
:100C90000925ED432C11521963410024401C614188
:100CA0001C460A250026551BB441F1D270BDFFB584
:100CB00004460D4681B0243000902168880604D592
:100CC0001022E0699143216000E00120A84201DD8B
:100CD000471B00E000270498A1697A191018081A28
:100CE000A0612078C00602D42046FFF7FAFC002657
:100CF00008E003986268A168805D9047206A401C04
:100D0000761C206204988642F3DB2078C0060AD560
:100D10002046FFF7E6FC06E06268A16830209047B5
:100D2000206A401C206238467F1E0028F4DC07E061
:100D300000986268A168405D9047206A401C20626C
:100D400028466D1E0028F3DC2046FFF7E0FC2078E3
:100D5000000602D5022005B0F0BD0120FBE700002F
:100D6000FFB50C461E468FB003CA089009914F008C
:100D70007D0D00D16D1E002108460020C0460321D4
:100D8000099A89050840002A03DA82008018400881
:100D90000840800D01280A9002DD0020C0430A901F
:100DA000089807430DD0F048F04928184843071425
:100DB000189800281DD07542291E1DDD0A98424250
:100DC0001BE01898012802D00020302104E0002008
:100DD000F24305E02154401CB042FBDB30460022C8
:100DE000189B002121540F998B600A60486013B052
:100DF000F0BDBD1B6D1CDFE70A9A002900DA6942CD
:100E00000BA800F0F5FB0BAB07CB03AB07C30899AE
:100E1000099800F059FC6B4607C30146D4480918ED
:100E2000002D00910BDDD24903980A9A49424018DF
:100E3000002303A90390684600F0B6FE08E003997A
:100E40000A9A0023081803A90390684600F056FE8A
:100E50006B4607C30004000C03D00020C0434108C8
:100E600000E01046189A002A03D00022009215468E
:100E70001EE0751E05D4FFF7DDFE303262556D1E93
:100E8000F9D501220843079602D000227F1C04E016
:100E90002078302801D100227F1E002A069787D0B3
:100EA0001EE0112D07DAFFF7C5FE303262556D1CCA
:100EB00002460A43F5D1084303D00098002819D010
:100EC0000EE00021681E05E0235C625C635422543E
:100ED000401E491C8142F7DBA81B401E0795069067
:100EE000079A18990020A0540F98079B069A8160D2
:100EF0000CC07CE711260020189059E7D21DF0B5F0
:100F00000D460446D10893B0C90003C90C900D9159
:100F100004F082F802460D98C00F01D02D2007E0A2
:100F20002068810701D52B2002E04007C00F400157
:100F3000032A0F9001D0072A05DB034629462046E5
:100F400000F012FB0EE12078800601D5E76900E091
:100F500006272846652D04D0662814D0672D69D150
:100F60002DE00020112F009001DB112300E07B1CFD
:100F70000CAA03A910A8FFF7F3FE119900261098F8
:100F80007D1C0E9142E001203B460CAAC0070B904D
:100F90000120009003A910A8FFF7E2FE119D12980E
:100FA0001099002600280E9501D1781C0D18781B89
:100FB00002D446427D1C761EE81B00903AE0012FC9
:100FC00000DA01270020112F009001DD112300E03D
:100FD0003B460CAA03A910A8FFF7C2FE11993D4693
:100FE000109800260E91217809070BD40E99A9427A
:100FF00000DA0D4603A9012D04DD4A19203AD27FFB
:10100000302A06D0B84201DA011D04DA012100912C
:101010000FE06D1EEFE7002802DC86192D1A03E0B1
:10102000411CA94200DD0D46801B401C00900120A0
:10103000C0070B902078000705D40098A84202DB77
:101040000020C043009069460020C8720B9801211F
:1010500002AF0337C907884225D0022010902B2009
:1010600011900B9800280BDA40420B902D20119024
:1010700006E00B9800F039FA30317F1E0B90397082
:101080001099481E00291090F3DC0B980028F0D12D
:1010900011987F1E38702088000501D5452000E09A
:1010A00065207F1E387001A8C01BC01D0B900F98D3
:1010B000002800D0012041190098C01709180B988A
:1010C0000818A169081A401EA0612078C00602D441
:1010D0002046FFF706FB0F98002805D06268A1683C
:1010E0009047206A401C20622078C00625D5204603
:1010F000FFF7F7FA21E0002E07DB0E98B04204DD7F
:1011000003A86268805DA16802E06268A16830207F
:101110009047206A761C401C20620098401E0028E0
:1011200000900AD100F01CFAC06862680168405C57
:10113000A1689047206A401C206228466D1E002846
:10114000D9DC07E062683878A1687F1C9047206A84
:10115000401C20620B99481E00290B90F2DC2046AF
:10116000FFF7D5FA032042E601FCFFFF104D000017
:10117000E1DFFFFFD21DF0B504460D46D0088DB06B
:10118000C000466807683146384603F045FF02460E
:10119000F00F01D02D2307E02068810701D52B2314
:1011A00002E04007C00F43016846002B037001D0E6
:1011B000012000E00020032A0A9001D0072A04DB66
:1011C0002946204600F0D0F92DE12078800601D490
:1011D0000D2500E0E5697000400D0D2D01904BDA02
:1011E000300D00210B9008460020C04603218905E0
:1011F0000840002E05DA82008018C20F1018401037
:1012000008408015012801DD0020C043A90000230B
:10121000182906D39C460A460123183A1B07D340D7
:1012200003E001221205CA4094460C31202902D362
:101230003A46203900E032468A40002802DD002A82
:1012400006D119E0002817D10121C9078A4213D31A
:10125000194663467F185E41002806D10120C00769
:10126000824202D1084687439E430B98310D81424A
:1012700002D00198401C01902088000502D57149D8
:10128000794402E06F49794419396B460A98302253
:101290001A540A980A7C401C1A54401C0A9001985F
:1012A000002801DC302000E031201872019A012072
:1012B000002A02D0644BD21804E072003A4302D0F4
:1012C000614A521C0192002D02DC2278120703D5DC
:1012D0006A462E20507202200022864694460CE078
:1012E00032033601120F6D1E8B5C02AA1354624644
:1012F000521C401C9446052A01DA002DF0DC002225
:1013000002AE08E03B0F3F01CB5C521C6D1E335414
:10131000401C082A01DA002DF4DC23689A0601D566
:1013200011E0401E704504DD3218203AD27F302A89
:10133000F7D0002807DD3218203AD27F2E2A02D1BA
:101340001A0700D4401E002D03DD3E223254401CFB
:101350006D1E497C31540199401C002906DA2D216B
:10136000471C315401984042019003E02B21471C57
:10137000315401987D21C900884206DBFFF7C0F88F
:101380003030F0557F1C019101E0642808DB0198A2
:101390006421FFF7B5F83030F0557F1C019101E072
:1013A0000A2806DB01980A21FFF7AAF83030F05529
:1013B0007F1C01980A21FFF7A3F83031F1550A98F4
:1013C000A1697F1C7A191018081AA0612078C0063C
:1013D00002D42046FFF785F9216A6E460A9808185C
:1013E000206204E062683078A168761C90470A9811
:1013F000401E0A90401CF5D12078C00602D5204638
:10140000FFF76FF902AE09E03078761C3E280DD068
:101410006268A1689047206A401C20627F1EF3D258
:101420002046FFF774F90DB00320F0BD206A401983
:10143000206203E06268A168302090476D1EEDD302
:10144000F8E700009C3E000001FCFFFF10B5436977
:10145000002B02D0C046C04601E0FFF77BF9012017
:1014600010BD1278014624310A7000224A70012210
:10147000ECE711680022D243E8E710B54369002B7E
:1014800002D0C046C04601E0FFF7F6F9012010BDCA
:1014900012880146243182840022C2840122ECE7B2
:1014A00011680022D243E8E7F8B516460C46054617
:1014B00000F04EF80368FF200230C05C012807D01E
:1014C000FF2C0FD8185D00280CD001202C70F8BD1F
:1014D000FF333246214608331868C71828460023D0
:1014E000B847F8BD0020C043F8BD01468008081A7F
:1014F00002091018020A1018020C1018C008820005
:1015000012185200891A01E0401C0A390A29FBD23C
:101510007047754600F0A0FBAE460500694653468D
:10152000C008C000854618B020B5FEF7CDFE60BCEF
:10153000B64600260027C0C5C0C5C0C5C0C5C0C5C9
:10154000C0C5C0C5C0C5403D490849008D4670476B
:1015500010B500F005F8001D10BD00BF253B0000D0
:101560000048704730000020F8B51F4604460123AC
:101570000068DB02032601461840072A05DB002825
:1015800001D017A506E017A504E0002801D016A594
:1015900000E016A5102081432160A069C01E002F25
:1015A000A06101D0401EA0612046FFF79AF8002FED
:1015B00009D038466268A1689047206A401C2062C2
:1015C000C01C206206E0206AFAE762682878A168F9
:1015D0006D1C9047761EF8D22046FFF798F8F8BDAC
:1015E0004E414E006E616E00494E4600696E6600C7
:1015F000F7B516468AB0334878446C4603467C33C8
:10160000C06F5A689B680DC42E487844763003AC8E
:101610000DC80DC43720C001081837211B30FEF754
:101620006FFF05460C46803D1B3C02D564420120FD
:1016300000E000200027099010E0E0070CD00C200B
:1016400020497843794432464C3941186846012391
:1016500000F054FA6B4607C364107F1C002CECD1D9
:10166000184F7F442E3F16E0E80712D02001C01922
:101670000EC80691089307920068F04201D19819AC
:1016800008903246012306A903A800F037FA03ABFD
:1016900007C36D10641C002DE6D10998002806D000
:1016A00032466946012303A800F07EFA05E00123D3
:1016B0003246694603A800F021FA0A9B07C30DB021
:1016C000F0BD0000383B0000034640000A4610B55C
:1016D000400D0BD00121C9070F24A40200191C03DF
:1016E00064082143540D2143D20207E00021012068
:1016F000F2E7D40F490021435200401E0029F8DAD6
:10170000DB0FDB07184310BDFFB50D46144685B04F
:101710004868516803F067FC00910190A868A168CF
:1017200003F061FC02910390A868616803F05BFC20
:10173000029A12188242029201D2012000E0002097
:10174000019A0B18D2180028019202D08A4202D9BD
:1017500003E08A4201D2012000E00020009908182D
:1017600000906868A16803F03EFC029A1218824259
:10177000029201D2012000E00020019A0B18D21839
:101780000028019202D08A4202D903E08A4201D2A3
:10179000012000E0002000990818009028682168C6
:1017A00040004900400849084018FA49471814E029
:1017B00001994000C90F0843009001980299400028
:1017C000C90F08430190029803994000C90F0843CC
:1017D0000290039840007F1E039000980028E7DAEB
:1017E0000898002801D0EC4E00E00026B74201DA4C
:1017F000012000E00020002804902AD0F71BF80602
:10180000C00E15D0029B2021091A039A8B401A435F
:101810000392029A019BC2408B401A430292019AA2
:10182000009BC2408B4000991A430192C140009135
:101830007B110DD06F460320C11A03D50021820011
:10184000B95003E08A008100BA587A50401EF3D59F
:10185000374603980299002800D0012001430898D8
:101860000291002808460CD0002800D001200199E0
:10187000019A490508430121D20AC902D202019204
:1018800000E001210E9B0122D207012B02D0002B88
:1018900003D013E0002807D120E0904204D8904202
:1018A0000CD1019B0B4209D0019B5918019105D124
:1018B0000099491C009101D17F1C009200280DD095
:1018C000102108460020C0460498002806D00F9832
:1018D000002803D0082108460020C0462868216857
:1018E000019B009A4840C10F0598C90739430EC0B3
:1018F00009B0F0BDFFB587B0099A089808995368F8
:101900009268406889689646002203931746944679
:10191000089A12685300099A5B081268520052082C
:101920009A1A9E4BD4180A9A002A01D0352200E058
:10193000402206920022012315460492DB070593FC
:1019400024E0002D05D175460346039E4D1BB3418F
:1019500009D375466646039B491B049D9841059B28
:101960007519AC465F4163463B4308D0059B049E16
:10197000DD0776082E435B080496059301E0521EAE
:10198000641EC50FED0749184041521C069B9A4240
:10199000D7DB002D04D17546039A6B1A824101D220
:1019A00003200CE0039A0B466B404240134303D0E4
:1019B000014303D0012002E0022000E00020614644
:1019C00001910021009702910A99002905D06146F2
:1019D00040020143704B019102E080070023029016
:1019E0009C4201DA012000E0002007003AD01A1BD7
:1019F000D006C00E15D0029D2021019C091AC540B9
:101A00008C402543029C8C4000D001242543019C3E
:101A10000295009DC4408D4000992C430194C14023
:101A2000009154111DD06D460221002202290CD1D3
:101A30000320001B07E0002804DB8600AE59002EBF
:101A400000D00122401C0328F5DB081B02D58800CA
:101A50002A5004E08000285810438A00A850491EEC
:101A6000E3D51C460A98002802980CD0002800D024
:101A700001200199019A490508430121D20AC902AE
:101A8000D202019200E00121109B0122D207012B1A
:101A900002D0002B03D013E0002807D11FE09042B2
:101AA00004D890420CD1019B0B4209D0019B5918DC
:101AB000019105D10099491C009101D1641C00924B
:101AC00000280CD0102108460020C046002F06D068
:101AD0001198002803D0082108460020C046089825
:101AE0000999019A009B006809684840C10F07984E
:101AF000C907214382600AC00BB0F0BD00B585B0B4
:101B0000019300920A460146002302A8FFF7FCFD5C
:101B100002A807C805B000BDFFB50A461F4685B03C
:101B20000799019301230091014602A8FFF7ECFDFC
:101B300002990398049ECA0F4900D20700920F220F
:101B4000490892028C1A0021002800DB0C4645004F
:101B500013486D08844214D3079A002A04DA441EFD
:101B60000026104DF64302E004460D460E461021B5
:101B700008460020C046002F03D00421084600205C
:101B8000C0462005E90A0843009908436905F20A9E
:101B90001143ADE602C0FFFF013C0000FF3F000023
:101BA000FF070000FFFFFF7F00B585B001930092A3
:101BB0000A460146002302A8FFF79CFE02A807C8B8
:101BC000A8E7FFB50A461F4685B007990193012390
:101BD0000091014602A8FFF78DFE02990398049E2A
:101BE000CA0F4900D20700920F22490892028C1AAC
:101BF0000021002800DB0C46450011486D08844296
:101C000014D3079A002A04DA441E00260D4DF64329
:101C100002E004460D460E46102108460020C0464C
:101C2000002F03D0042108460020C0462005E90A01
:101C30000843009908436905F20A114358E6000079
:101C4000FF070000FFFFFF7F10B50446C046C046F7
:101C50002046FEF70DFB10BD004870471000002025
:101C600082078B079A423FD170B5920F0AD00324A6
:101C700002780B78401C491C002A33D09A4231D19B
:101C80002042F5D1214EF40104C808C9951B9543A3
:101C9000254018D19A420FD104C808C9951B954315
:101CA000254010D19A4207D104C808C9951B954315
:101CB000254008D19A42E7D012BA1BBA01209A42B5
:101CC00000D2404270BD12BA1BBA2DBA18241000BF
:101CD000E0401900E140401A05D12E00E64002D153
:101CE000083CF4D1D01A70BD02780B78401C491C16
:101CF000002A09D09A4207D102780B78401C491C6F
:101D0000002A01D09A42EFD0D01A70470101010198
:101D100001491820ABBEFEE7260002007047B0B5AF
:101D200088B006A80024C470847008214170047033
:101D300002A8C470847041700470079405940494E0
:101D400003940194009401F041FE002844D001F076
:101D500079FE002840D02020232101AA01F052FF63
:101D6000242027216A4601F04DFF0024032107AA01
:101D7000204601F047FF0425072106AA284601F066
:101D800041FF08200B2105AA01F03CFF1020132180
:101D900004AA01F037FF1420172103AA01F032FF33
:101DA00018201B2102AA01F02DFF6020294601F016
:101DB000FDFE7020012101F0F9FE2A20214601F0EC
:101DC000F5FE2920E52101F0F1FE2820832101F014
:101DD000EDFE01F091FE0446204608B0B0BD0000C3
:101DE000F0B58BB0059030A002F036F808A9EF26C8
:101DF0004E720E72FE200390C87100278F714F71D2
:101E00000F710C20C87006258D70FF244C70019452
:101E10007E2002900870FB43079326480A22069210
:101E200001F0B2FC24A002F017F87D20049000011C
:101E300000F0B0F808A94E72BA2008720398C87171
:101E4000022088714F710F713F20C8708D704C70E7
:101E5000029C0C701748069A079B01F095FC19A08C
:101E600001F0FAFFC82000F095F808A94E721C484E
:101E7000059A801A0872000AC8718A714F710F7131
:101E8000CD708D70019848700C700A48069A079BB7
:101E900001F07AFC13A001F0DFFF0498800000F04D
:101EA00079F80BB0F0BDC04644465F496E697420B6
:101EB0000D0A0000600200204446205265736574DC
:101EC000200D0A0053656E6420436D6420746861C0
:101ED0007420696E697469616C697A65200D0A0005
:101EE000F5FE000053656E6420436D6420746861E4
:101EF00074206368616E676520766F6C756D652010
:101F00000D0A000080B584B001A9EF204872ED20D1
:101F10000872FE20C87100208871487108710E2275
:101F2000CA7006228A70FF224A707E220A70C3435A
:101F300010480A2201F028FC04B080BD80B584B0AE
:101F400001A9EF204872EE200872FE20C87100201F
:101F50008871487108710D22CA7006228A70FF22AA
:101F60004A707E220A70C34302480A2201F00CFC28
:101F700004B080BD6002002010B50124A00200F072
:101F800023F8600300F020F810BDEFF3108072B664
:101F9000FEE70000B0B5044600F0EEF80546601C10
:101FA00002D095480078041900F0E6F8401BA042E2
:101FB000FAD3B0BD01214A02904201D1014801701B
:101FC0007047C0467C01002080B504490A6802427F
:101FD00002D00860FFF7EEFF80BDC0461404014048
:101FE000F0B58AB007900B68002B00D1B3E00E4625
:101FF0005A480799814201D0062000E005200B21B4
:102000000907079A52180A21CA410192052A00D3EA
:10201000019007982030009000221546174602963E
:1020200019460BE021434E4801607F1C3168084689
:10203000F840121DAD1C002800D18CE00123184689
:10204000B8400140F1D00593069203913246032631
:102050003146A9400495CD4351680C463440631E77
:10206000012B0895099110D807998B682B40D668E9
:10207000049DAE401E438E60099AD306DB0FBB4021
:102080004E6886431E434E6006E0032C049D03D138
:102090003446029E069A1DE00799C868089A1040C7
:1020A000029EB368AB400343CB60022C069A11D169
:1020B0001C2010400F218140FB089B00009AD4583F
:1020C0008C43316981402143D150069A70680324C2
:1020D00009900440AC4007990868089B18402043C9
:1020E000086009988003800F059B9ED049490868C5
:1020F000184308600C2010400F21814003233C4608
:102100009C43184BE3588B43019981401943154870
:102110002150134881687068C30202D5039C214393
:1021200001E0039CA1430E4B9960D968830201D55D
:10213000214300E0A1430A4BD9605968830301D5CC
:10214000214300E0A143064B59601968C00300D544
:1021500068E7A14367E70AB0F0BDC046001C005025
:102160000004014008000140002A02D018228150DA
:102170007047282281507047054800687047C04664
:102180001D48007802490A68101808607047C04668
:10219000E802002010B50848016840220A430260A6
:1021A0000024204600F00AF8002801D0012010BDCC
:1021B00000F026F8204610BD0020024070B504460D
:1021C0007D20C0000C4E317802F012FE01460B4813
:1021D000006802F00DFE01F00BFA0125032C08D86F
:1021E000002806D10025E84321462A4600F020F8C1
:1021F0007460284670BDC046000000200800002022
:1022000004480168012211430160110742680A4332
:102210004260704734100240002805D41F21084056
:1022200001218140014801607047C04600E100E0A3
:10223000002805D40322034693430A4A9A1803E070
:102240000C220240064BD2188007C00E8901C9B289
:102250008140FF2383401068984308431060704713
:1022600014ED00E000E400E0F0B589B00668012557
:102270002F02EA0211462031874B0E427CD0059294
:1022800008902907143B18680840049002D1186888
:102290000843186001930291804C2068384211D1A4
:1022A000206838432060FFF767FF06462068384201
:1022B00008D1FFF761FF801B6428F7D90325284662
:1022C00009B0F0BD0326340573484C380690016808
:1022D0002140089B5868024603942240009634042B
:1022E00091420AD102462240A242069E0DD19A682E
:1022F000039B1A40914205D107E001462140A142CB
:10230000069E02D131688903D9D4634B596807947A
:10231000214021D0079A1040814203D008980078CC
:1023200080060AD408988068079A1040814213D02A
:1023300008980068059908420ED05868E9045A6860
:102340000A435A605A688A435A600146079A914381
:102350005960384200D08CE00898066805990E4212
:10236000079C59D1B1066DD40499002904D1019C70
:102370002168029A91432160F1070DD1B10713D46E
:10238000710719D4310720D43E4227D171062ED4CB
:102390000025310693D535E0196803229143C268C0
:1023A0000A431A60B107EBD519680C229143026900
:1023B0000A431A607107E5D5032189021A688A4326
:1023C0004169114319603107DED5032109031A68F9
:1023D0008A438169114319603E42D7D00321090421
:1023E0001A688A43C169114319607106D0D5012169
:1023F00089061A688A43416A11431960002531062B
:1024000000D45CE703218A0419689143006A0843F9
:102410001860284609B0F0BD826811462140A142EB
:102420000BD10398024003231B05069D2C689C4397
:10243000194B089814432C60079C5A680A435A6049
:10244000B10691D5426811462140A1420AD10398B4
:10245000024003231B05069D2C689C430E4B0898E5
:1024600014432C605A680A435A600499002983D1A6
:102470007DE7FFF781FE0546884C074B58688005CD
:1024800000D569E7FFF778FE401BA042F5D9009D13
:10249000284609B0F0BDC0464C1002400070004014
:1024A000F0B583B0002846D00E4602907A48006806
:1024B000012101910840B04216D2774908680125F0
:1024C000A84330430860754CFFF756FE0746724834
:1024D00000682840B04207D0FFF74EFEC01BA04264
:1024E000F5D9032003B0F0BD029D28688107794C1F
:1024F00005D52168F0229143AA680A432260C007EB
:102500001CD16548006801273840B04224D962498F
:102510000868B8430860614CFFF72EFE05465E4828
:102520000068C00718D0FFF727FE401BA042F6D96D
:10253000032003B0F0BD012003B0F0BD6A6821465E
:102540000C390968012A34D0032A2DD0022A72D10D
:10255000890301982BD52FE0029B186841075D4C39
:1025600006D50721090222688A43D96811432160F0
:10257000000707D50720C002216881431869C00001
:102580000843206021680807820F6E487A44127958
:10259000520097440154735B380421460839096896
:1025A0000904490F884069E08901019804D403B007
:1025B000F0BD49070198FAD52168032001908143B5
:1025C00011432160FFF7D8FD07466868334D0328A3
:1025D0002BD002281ED001280AD120680C210140EE
:1025E00004298ED0FFF7C8FDC01BA842F5D909E029
:1025F00020680007800F00D183E7FFF7BDFDC01BF7
:10260000A842F5D9019803B0F0BDFFF7B5FDC01B96
:10261000A842F7D820680C2101400829F5D170E7BD
:10262000FFF7AAFDC01BA842ECD820680C2101408E
:102630000C29F5D165E789050198B8D5BCE7204696
:102640000C380068C00612D5414817E08A02120F04
:102650003D4B9A5C0902890F491C2368DB0309D4AE
:1026600020460C380068C00603D5394802E03748D8
:1026700004E036484243104602F0BAFB21680906DE
:10268000090F074A515CC8401149086005480068B5
:10269000FFF794FD03B0F0BD002002408813000056
:1026A000C851000804000020094800680949096869
:1026B0004905490F084A515CC84070470448006802
:1026C000044909688904490F034A515CC8407047AE
:1026D000080000200C100240D851000810B5854BAE
:1026E000D9680807820F17487A4412795200974434
:1026F0000108070D0120000459680904490F8840AA
:1027000010BD1868C00614D5114810BD8A02120FFA
:102710000D4CA25C0902890F491CDC68E40303D458
:102720001868C00607D50A484243104602F060FB0D
:1027300010BD064810BD05484243104602F058FB44
:1027400010BDC04600127A00E05100080024F400D9
:1027500000093D00F0B589B0002856D0654EF168FB
:102760000C220A400692012105910904F7680491A0
:102770000F4007900078C00710D00698082806D0B0
:1027800006980C2800D0D7E0002F00D1D4E03068A4
:10279000800303D507984068002852D00798007836
:1027A000800735D407980078C0064DD40798007884
:1027B000000767D407990878400700D59CE008789F
:1027C000800600D51FE10798846A002C1AD006986D
:1027D0000C2800D068E1012C33D0F068049A024044
:1027E000079BD96A8A422CD10F21890401401A6BB8
:1027F000914226D1032189050840596B88420598EA
:1028000000D056E2002009B0F0BD012009B0F0BDB3
:10281000079BD868810604D53168202211433160B6
:1028200090430699042906D006990C2900D0A9E006
:10283000002F00D0A6E0316800283AD104221140D0
:1028400037D0059809B0F0BD01204402069900294F
:1028500000D1ADE03168079AD2690002002A00D1A8
:1028600001E101433160FFF787FC054630682042F3
:1028700000D008E1FFF780FC401B0228F6D90320B6
:1028800009B0F0BD306D07994969002900D1D9E040
:10289000012108433065FFF76FFC0546306D800766
:1028A00088D4FFF769FC401B0228F7D9032009B040
:1028B000F0BD1F21090272688A4319690902114398
:1028C000716031680922914301433160F168080762
:1028D000820FF9485200C0467A44928852009744C9
:1028E00003002401D9013A0170680004410F0498E3
:1028F0008840CFE10010024001221107B06B084070
:10290000029002D1B06B0843B063019103921402AC
:10291000F04F3868C00523D4386820433860FFF78B
:102920002BFC0546386820421AD1FFF725FC411BD5
:1029300003206429F6D9BCE1306807994968049AF4
:10294000914209D005221204914200D0CDE00599B0
:102950008904084330603068049908433060D3E04C
:1029600007988168306D039B5F02002900D12AE13E
:1029700005221202914200D11FE1A14200D036E1AE
:10298000204339E13168002800D1D3E00922914386
:1029900001433160FFF7F0FB05463068400700D582
:1029A00001E1FFF7E9FB411B03200229F5D980E192
:1029B0003168214204D00799C969002900D178E122
:1029C0000720400371688143079B586A0143716087
:1029D000FF21090672688A43196A0906891871601D
:1029E000400B04998140F0680006000FB64A105C65
:1029F000C140B6480160B6480068FFF7DFFB002819
:102A000000D056E1D2E6B06807998969002900D163
:102A1000B3E001210843B060706B08437063480362
:102A2000AE490A6802430A60FFF7A6FB0546B06894
:102A3000800700D5C7E6FFF79FFB411B0320022953
:102A4000F5D936E1012188433065FFF795FB05464E
:102A5000306D800700D4ADE6FFF78EFB411B0320ED
:102A60000229F5D925E181433160FFF785FB054651
:102A70003068204200D199E6FFF77EFB411B03201E
:102A80000229F5D915E10720400371688143079AAF
:102A9000506A08437060FF20000671688143106A25
:102AA00000064018706081E60120010632688A4302
:102AB00032604706FFF760FB0546022C0AD13068FA
:102AC000384200D1C3E0FFF757FB411B0320022926
:102AD000F5D9EEE03068384200D193E6FFF74CFBC1
:102AE000411B03200229F5D9E3E0049A90433060AA
:102AF0003068104008900898059880043268824336
:102B00003260002900D192E005984404FFF734FBBD
:102B100005463068204200D040E6FFF72DFB401B01
:102B20006428F6D9032009B0F0BD3068C0067CD512
:102B30006448AFE0012081433160FFF71DFB05468B
:102B40003068400700D42DE6FFF716FB411B032039
:102B50000229F5D9ADE08A02120F584B9A5C09029E
:102B6000890F491CF368049C234200D08EE0306832
:102B7000C00600D489E0534888E001218843B06052
:102B8000480356490A6882430A60FFF7F5FA05468A
:102B9000B068800700D416E6FFF7EEFA411B032069
:102BA0000229F5D985E01F2000027168814307984A
:102BB0000069000208437060F4E59902084330653B
:102BC000306D204318E0A04330659802316D814399
:102BD0003165FFF7D1FA05463F4C306D38421AD0C7
:102BE000FFF7CAFA411B0320A142F6D961E0A043D6
:102BF00030659902306D88433065FFF7BDFA0546B0
:102C0000354C306D384206D1FFF7B6FA411B032030
:102C1000A142F6D94DE002980028079900D0CEE5F0
:102C2000B06B019A9043B063C9E5254832E005983E
:102C30004404FFF7A1FA05463068204200D1ADE513
:102C4000FFF79AFA411B03206429F5D931E0FD20F2
:102C50000004F1688143079B2C330DCB08431043DC
:102C60001843F0601E48401C316801433160FFF793
:102C700083FA04463068384200D0C3E5FFF77CFA97
:102C8000011B03200229F5D913E00D4842431046E9
:102C900002F0AEF8F1680906090F0B4A515CC84012
:102CA0000A4908600A480068FFF788FA002800D13E
:102CB00078E509B0F0BDC04600127A00E051000886
:102CC0000024F40000093D00C8510008080000205D
:102CD0000400002000700040881300002000014024
:102CE000FFFFFF005121405C7047F0B583B0002822
:102CF0000AD00446503441218F00416A002906D091
:102D000000210161142106E0012003B0F0BD4168FB
:102D1000B94202D01C21002242500021029181625E
:102D20006178002905D100212170054600F03EF8A8
:102D300028460225657001680A6840239A430A60A4
:102D400042683A4021239B02019484681C40A418E5
:102D50000122D602C3683340E31804692C401C43A7
:102D6000436913402343FC3785692F401F43C369E0
:102D700038241C403C43036A80271F4027435303E9
:102D8000846A1C403C430C60436A10241C402B0C9A
:102D900004251D4063194B60CB69B343CB61029995
:102DA000416501984270084603B0F0BDF0B587B0A8
:102DB0000025069505950495039502950068194927
:102DC000884201D007B0F0BD01210A03164883688C
:102DD0001343836002680A43026002680A4001925A
:102DE000019901680226314301600068304001907A
:102DF00006950327059704950396C0200290019835
:102E00000520000702AC2146FFF7EAF80695059772
:102E1000049503960820029004482146FFF7E0F845
:102E200007B0F0BD003001402C10024000040050FB
:102E3000F0B587B0069304460646503670780225F2
:102E400001283ED10120002900D1ECE0002A00D168
:102E5000E9E00492412082006068904203D1A068BA
:102E6000002800D1BFE003920F46FFF785F90590D7
:102E7000307801282846049A00D1D4E0394604204D
:102E8000707000276765E28701233370A287A16312
:102E9000A786276327646764E78620680493DA03BC
:102EA000A168029291423AD001684906069D43D535
:102EB000E08FE168002947D000287BD0681C0ED144
:102EC0001DE0284607B0F0BDA16BC0680880881CD3
:102ED000A063E08F401EE087E08F00286AD0206862
:102EE0008168C907F0D1FFF747F90599401AA84250
:102EF000F2D344E0FFF740F9E08F00285AD0206871
:102F00008168C907F6D0A16BC0680880881CA063DF
:102F1000E08F401EE087E08F0028F0D14AE0016892
:102F20004022914301600499890302688A43026048
:102F300001684906069DBBD4016840220A4302602D
:102F4000E08FE1680029B7D1002833D0681C0CD18C
:102F500020E0007BA16B0870A06B401CA063E08F99
:102F6000401EE087E08F002824D020688168C907D0
:102F7000EFD1FFF701F90599401AA842F2D3377053
:102F800004987070032007B0F0BDFFF7F5F8E08FEC
:102F900000280FD020688168C907F6D0007BA16B9C
:102FA0000870A06B401CA063E08F401EE087E08F9C
:102FB0000028EFD160680399884210D1A068029977
:102FC000884203D004998902884217D121680A688F
:102FD00040239A430A600499890288420ED10598D9
:102FE000009001210DE004207070069800902046AA
:102FF0000A46049B00F056F907B0F0BD0598009012
:103000008021002220462B4600F092FF002804D0A9
:10301000606D2021084360656165049870703770A9
:10302000606D411E884107B0F0BD0000F0B589B069
:10303000059316460D46044607465037FFF79CF8A1
:1030400079780222012952D104970127002D4FD00F
:10305000002E4DD0049909780129174648D003273E
:10306000049A577000216165E68601231370A686D5
:103070002563A187A163216461640291E1872268CD
:103080000393D9031346A2688A4208D119684022E3
:1030900091431960039989031A680A431A600690DC
:1030A0001968490603D4196840220A431A6001933B
:1030B00061684A424A41731E59425941114303987B
:1030C000C202E368934242D10029059E069B07D0C5
:1030D00029880198C160A81C2063E08E401EE0860C
:1030E000E08E0028029D79D0701C0FD11FE017469A
:1030F000384609B0F0BD216B0A88C260881C206385
:10310000E08E401EE086E08E002867D0206881684F
:103110008907F0D4FFF730F8069BC01AB042F2D30B
:103120003FE0FFF729F8069BE08E002856D0206884
:1031300081688907F5D5216B0A88C260881C2063E5
:10314000E08E401EE086E08E0028F0D146E00029A7
:10315000059E069B08D0297801980173206B401CBE
:103160002063E08E401EE086E08E0028029D35D070
:10317000701C0CD122E0216B09780173206B401C7C
:103180002063E08E401EE086E08E002826D0206876
:1031900081688907EFD4FEF7EFFF069BC01AB042A3
:1031A000F2D30498057003994170384609B0F0BD18
:1031B000FEF7E2FF069BE08E00280FD020688168B2
:1031C0008907F5D5216B09780173206B401C2063BA
:1031D000E08E401EE086E08E0028EFD100930221B1
:1031E000012720463A46334600F0A2FE002817D0B9
:1031F000606D2021084360656165A068002806D1E4
:1032000007952068C168079180680790079804981F
:1032100047700570676D781E8741384609B0F0BD6C
:10322000F1480068F14901F0E3FD7D21C900414307
:10323000089141208000616881420AD1069800907F
:10324000802100222046334600F072FE0028CFD1B4
:10325000D3E708980028D0D00898401E089020682E
:1032600080680006C9D508980028C6D00898401E76
:103270000890206880680006BFD508980028BCD058
:103280000898401E0890206880680006B5D5089808
:103290000028B2D00898401E089020688068000678
:1032A000D7D4AAE7F0B587B01E4615460391074666
:1032B00004465034FEF760FF0490029461780129BF
:1032C0000ED101200399002915D0002D13D0002E16
:1032D00011D00299087801280FD1022007B0F0BD63
:1032E000412082007B680220934204D1042902D14C
:1032F000B9680029E5D007B0F0BD01200446087088
:103300004878042801D00520487000207865FE87A1
:10331000FE86BD63BE870399396338640190786483
:10332000BE8638680168490603D4016840220A4312
:1033300002600C9D79684A424A41731E59425941C4
:103340001143E202FB6893423DD1002907D0039A62
:103350001188C160901C3863F88E401EF8862E4696
:10336000681C7BD00125049C04E0FEF705FF001BD0
:10337000B0426BD2F88E002803D1F88F002800D11C
:10338000C7E03868816889070DD5F98E00290AD011
:10339000012D08D1396B0A88C260891C3963F98E06
:1033A000491EF98600258168C907DED0F98F0029FA
:1033B000DBD0B96BC0680880881CB863F88F401EEA
:1033C000F8870125D1E7002908D00399097801730E
:1033D000386B401C3863F88E401EF8862E46681CF9
:1033E00068D0019D05E0FEF7C7FE0499401AB0427F
:1033F0002CD2F88E002803D1F88F002800D188E065
:1034000038688168890710D5F98E00290DD02146CA
:10341000012C0AD1396B09780173386B401C386371
:10342000F88E401EF88638682C468168C907DAD0C5
:10343000F98F0029D7D0B96BC0680870B86B401CF1
:10344000B863F88F401EF8870124CCE7002002996A
:10345000087001204870032007B0F0BD012501E08D
:10346000FEF78AFEF88E002802D1F88F002850D08F
:103470003868816889070DD5F98E00290AD0012D99
:1034800008D1396B0A88C260891C3963F98E491EDC
:10349000F98600258168C907E2D0F98F0029DFD0BD
:1034A000B96BC0680880881CB863F88F401EF88725
:1034B0000125D5E7012501E0FEF75EFEF88E002824
:1034C00002D1F88F002824D03868816889070FD589
:1034D000F98E00290CD0012D0AD1396B09780173BE
:1034E000386B401C3863F88E401EF886386800251B
:1034F0008168C907E0D0F98F0029DDD0B96BC068B9
:103500000870B86B401CB863F88F401EF88701251F
:10351000D2E7049C00940221012238461546334626
:1035200000F006FD00280AD0786D20210843786558
:103530000020029A10707965284607B0F0BD2A482D
:1035400000682A4901F054FC7D21C90041430691DD
:10355000412080007968814209D1009480210022B5
:103560003846334600F0E4FC0028DDD127E0069819
:10357000002824D00698401E06903868806800060F
:103580001DD5069800281AD00698401E0690386867
:103590008068000613D50698002810D00698401EB3
:1035A000069038688068000609D50698002806D07D
:1035B0000698401E0690386880680006D7D4B86820
:1035C000002807D1002005903868C16805918068FF
:1035D0000590059801200299487000200870786DC8
:1035E000411E884107B0F0BD0800002000366E0182
:1035F000401E010E01D0012070470749074A506064
:10360000074803680B40032189075918016000200F
:103610009060072111607047FFFFFF0010E000E09D
:1036200020ED00E07047B0B500281DD00446C06F03
:10363000002805D1782000212154204600F02AF8E6
:103640002420E067206801680125A9430160606AC1
:10365000002802D0204600F020FD204600F0C6FEE3
:10366000002803D02846B0BD0120B0BD0920C0020B
:1036700021684A6882434A6088682A2290438860A9
:103680000868012202430A60204600F06FFD0546EB
:103690002846B0BD10B586B0002105910491039174
:1036A000029101910068194A904212D0AB4A9042AF
:1036B0002AD101204204164BDC681443DC601A68EE
:1036C00002431A601A6802400092009804220C20FB
:1036D0000EE00120C2040E4BDC681443DC601A6863
:1036E00002431A601A6802400092009806220320E2
:1036F0000592032204920391022102910190052078
:10370000000701A9FEF76CFC06B010BD004C00409C
:103710002C100240F0B581B08023C358202B12D169
:10372000012400290CD0002A0AD001231C0385683B
:10373000A5420CD1CC070AD00469002C07D11C4645
:10374000204601B0F0BD0224204601B0F0BD0024A7
:10375000046605680A4EB5420DD06D682D020AD583
:10376000EFF3108583F310889B06066837681F43C4
:10377000376085F3108800F04FFF204601B0F0BDA0
:103780000048004070470000F0B585B00446C06FA7
:10379000202810D1012000290BD0002A09D00120B7
:1037A0000503A668AE4209D1CE0707D02669002ED0
:1037B00004D105B0F0BD022005B0F0BD0193029127
:1037C0002746503720468430002103910160212094
:1037D000E0671646FEF7D0FC04907E803E80A0682D
:1037E000A84202D1206900285ED0029D019E039A62
:1037F0002168788800285ED0701C454B2ED0002EA2
:1038000049D00392C869000608D4FEF7B5FC0499B4
:10381000401AB04266D821680868F3E7002D03D04B
:10382000287888626D1C07E0039A1088384B18408E
:103830008862921C039200257888401E78807888E0
:103840000028DFD137E0108818408862921C0025DC
:103850007888401E7880788800282CD0C8690006B7
:1038600008D4C869000605D4C869000602D4C8692E
:103870000006F3D5002DE6D0287888626D1CE7E7B6
:10388000108818408862921C00257888401E788035
:10389000788800280FD0C869000621D5002DEFD008
:1038A000287888626D1CF0E70025029A019E216845
:1038B00078880028A0D1CA690020520613D4002EAF
:1038C0000ED0721C13D1CA6952060CD4CA695206B2
:1038D00009D4CA69520606D4CA695206F3D502E071
:1038E000FEF74AFC03202021E16705B0F0BD054644
:1038F000FEF742FC0499401AB042F3D820680168F0
:10390000C0694006F4D528462021E16705B0F0BD26
:10391000FF01000010B504460F488460002C1AD047
:103920000E492160806800210C224B23DB0143609B
:103930008160C160016142618161C1610162416276
:10394000FFF771FE002801D0FEF71FFB024901229C
:103950002046FFF7DFFE10BD70000020004400404D
:10396000FEE70000F0B587B0019200910546BB4824
:10397000402102910022FEF7F7FB03A90520087001
:10398000B74C01270A2620463A463346FFF74EFB3E
:1039900004A90D7020463A463346FFF747FB05A9B8
:1039A0000098087020463A463346FFF73FFB06A9C9
:1039B0000198087020463A463346FFF737FBA74880
:1039C00002993A46FEF7D0FB07B0F0BD10B5F248B9
:1039D000402101242246FEF7C7FBA148FFF782F9E8
:1039E00001282DD09E48FFF77DF9012828D09C485A
:1039F000FFF778F9012823D09948FFF773F90128D8
:103A00001ED0F548FFF76EF9012819D0F248FFF7EC
:103A100069F9012814D0F048FFF764F901280FD0A4
:103A2000ED48FFF75FF901280AD0EB48FFF75AF994
:103A3000012805D0E848FFF755F9401E44424441AB
:103A4000204610BDF0B587B0D3484024002221465F
:103A5000FEF78AFB01A902200870DF4D01270A2624
:103A600028463A463346FFF7E1FA02A90F200870CC
:103A700028463A463346FFF7D9FA03A98020087052
:103A800028463A463346FFF7D1FAC34821463A461C
:103A9000FEF76AFB402100910022BF48FEF764FB5D
:103AA00004A90320087001240A25CB4807462246B2
:103AB0002B46FFF7BBFA05A90E20087038462246B0
:103AC0002B46FFF7B3FA06AFC348394622462B46CA
:103AD000FFF7AEF93D78B04800992246FEF744FB67
:103AE000E0212940802902D0761E3006D2D18039CB
:103AF0004842484107B0F0BDF0B589B0A648402122
:103B0000029100252A46FEF72FFB03A90220087028
:103B1000B14C01270A2620463A463346FFF786FA7B
:103B200004A90F20087020463A463346FFF77EFA74
:103B300005A90D7020463A463346FFF777FA9648B6
:103B400002993A46FEF710FB40210291002292486A
:103B50000192FEF709FB06A90320087001270A2538
:103B60009D4804463A462B46FFF760FA07A90E2007
:103B7000087020463A462B46FFF758FA08AC96489C
:103B800021463A462B46FFF753F92478824802999A
:103B90003A46FEF7E9FA202C02D3761E3006D3D13E
:103BA000202C00D3019F384609B0F0BDF0B585B098
:103BB000019100907848402500222946FEF7D4FA6A
:103BC00002A902200870844C01270A2620463A46A2
:103BD0003346FFF72BFA03A90098087020463A46AF
:103BE0003346FFF723FA04A90198087020463A46A5
:103BF0003346FFF71BFA684829463A46FEF7B4FAFF
:103C000005B0F0BDF0B585B002920191044662485E
:103C1000402500222946FEF7A7FA03A902200870D2
:103C20006D4801260A2732463B46FFF7FFF904A9F3
:103C30000C70694832463B46FFF7F8F90198001BC3
:103C4000401CC2B2644802993B46FFF7EFF9524864
:103C500029463246FEF788FA05B0F0BD0004005050
:103C600080010020F0B58DB000240C940B940A94D0
:103C700009940894474801680422114301600168CF
:103C8000114007910799016880263143016001685E
:103C90003140029607910799016801252943016087
:103CA0000168294007910799016802220492114393
:103CB00001600068104007900798052000070690F3
:103CC000192149012246FEF74FFA43200101324FE4
:103CD00038462246FEF748FA304831462246FEF77B
:103CE00043FA4021059138462A46FEF73DFA0A94E8
:103CF00021200004039009906803089008AE27482B
:103D00003146FEF76DF90B940A940995202008902E
:103D100006983146FEF764F9049F0B970A940995BB
:103D2000A8020190303008901B483146FEF758F940
:103D30000B970A9409950298089018483146FEF7A7
:103D40004FF90B970A9409950320000208900698F2
:103D500007463146FEF744F90A9403980990019802
:103D6000089038463146FEF73BF90B950A940995C1
:103D70000598089008483146FEF732F9072528468D
:103D800021462246FEF754FA2846FEF745FA0DB0C2
:103D9000F0BDC0462C100240000400500008005046
:103DA00010B50D4800210D4A07230162416281626E
:103DB000C36210234124A40014C0FC34016041609C
:103DC0008160C160046143610838FEF78EFF0028FE
:103DD00001D0FEF7DAF810BD80010020003001406C
:103DE00010B50D4C2046FFF795FD00200C21E12277
:103DF00052020A4B23606260A060E0602061616152
:103E0000A061E061206260622046FFF70CFC0028A0
:103E100001D0FEF7BAF810BDD801002000440040E0
:103E200010B59A4800210C22094B016241624B24D3
:103E3000E40118C0016041608160C26001614161BC
:103E40000838FFF7F0FB002801D0FEF79EF810BD00
:103E5000004C0040FEE7704783B0F0B5A4B00446C4
:103E600029A80EC029A82390EFF310800290EFF349
:103E7000108072B6239A03A82146FCF7BFFA0346C6
:103E8000C5B2284E7088281801210F027488FF28B7
:103E900008D82548001903A92A46FCF7C1FA7088FA
:103EA000441913E07088204908186142CAB2009290
:103EB00003AD29460193FCF7B3FA0098291801983D
:103EC0000019C4B218482246FCF7AAFA7480029876
:103ED00080F310887088C019B188401A134C2040B4
:103EE000012819DB104DEFF31080EFF3108172B64B
:103EF000B1884A1CD2B2B28080F310886918B068C9
:103F00003B462C330122FFF73FFC7088C019B18873
:103F1000401A20400028E6DC24B0F0BC01BC03B00D
:103F20000047C046700000207C000020FF00008099
:103F3000F0B583B01F4614460D460190089EFEF76B
:103F40001BF9301A0097C619FEF716F9019B0746B0
:103F50003B4800684001000D704302901968886872
:103F60002840401B424242410020A24201D103B0FE
:103F7000F0BD009A521C30D05033009308E0126814
:103F800092682A40521B53425341A3420E46EED040
:103F9000FEF7F2F8C01BB04227D200200299002998
:103FA0000146019AEBD00299491E02913146E6E79B
:103FB0008A682A40521B53425341A342D7D08A6891
:103FC0002A40521B53425341A342D0D08A682A4010
:103FD000521B53425341A342C9D08A682A40521B04
:103FE00053425341A342E3D1C1E7019B18684168A2
:103FF000E02291434160412189005A688A420CD1F4
:1040000099680122D3039942019B02D09202914206
:1040100003D1016840229143016001214A039B6A58
:10402000934205D10368934303600368134303601D
:104030000020009A10705170032003B0F0BDC046FC
:10404000080000207047000080B584B0FF2818D019
:1040500001A9EF224A72887100224A710A71032372
:10406000CB7006238B70FF234B707E230B70064BA7
:10407000181A0872000AC871D34304480A22FFF7CD
:1040800083FB04B080BDC046F8FE00006002002043
:1040900080B5FEF775F880BD7047B0B5416A0A0774
:1040A0000CD4CA0714D18A071CD44A0724D4CA06E0
:1040B0002CD48A0634D44A063CD44CE00122D203E4
:1040C00003685C689443426B22435A60CA07EAD093
:1040D0000122520403685C689443826A22435A6056
:1040E0008A07E2D50122120403685C689443C26A1D
:1040F00022435A604A07DAD50122920403685C68B9
:104100009443026B22435A60CA06D2D5012212039D
:1041100003689C689443826B22439A608A06CAD5DE
:104120000122520303689C689443C26B22439A6045
:104130004A0610D501221305026854689C43056C99
:104140002C4354609D4206D103235B0554689C4375
:10415000436C23435360090607D50121C904026853
:1041600053688B43806C18435060B0BDF0B583B08A
:104170000446064678360025F560FDF7FDFF034648
:1041800020680168090721D502952B480090012578
:104190006905002220461F4600F0A8FA002812D028
:1041A000EFF3108085F3108821680A6880239A4312
:1041B0000A6080F31088032020227C21029D625037
:1041C000357003B0F0BD20683B46029D0068400793
:1041D00026D5194800900127B9050022204600F095
:1041E00085FA00281CD0EFF3108087F3108809218E
:1041F0004901226813688B43136080F31088EFF342
:10420000108087F3108821688A68BA438A6080F337
:1042100010880320202280216250357003B0F0BD49
:104220002020E067B060256664212A462846625057
:10423000357003B0F0BDC046FFFFFF01F0B581B09F
:10424000802141580268222910D1014658318B88BB
:10425000526A1A40436D1A804A88521E4A809A1C3C
:1042600042654A88002A07D001B0F0BD9069082154
:104270000143916101B0F0BD03468033EFF3108438
:10428000012282F3108809256D0106683768AF4363
:10429000376084F31088EFF3108482F31088056888
:1042A000AE689643AE6084F3108820241C6000231F
:1042B000836643660468C74DAC420DD0646824022F
:1042C0000AD5EFF3108482F31088950606683768E4
:1042D000AF43376084F31088046E012C15D1036658
:1042E000EFF3108382F31088046825681022954349
:1042F000256083F310880368DC69E40600D51A6240
:104300000988FFF78FF901B0F0BDFFF73BFA01B064
:10431000F0BDC046F0B581B0802141580268222925
:1043200011D1014658318B88526A1A40436D1A7078
:104330004A88521E4A80426D521C42654A88002AB1
:1043400007D001B0F0BD906908210143916101B02F
:10435000F0BD03468033EFF31084012282F310880E
:1043600009256D0106683768AF43376084F310880C
:10437000EFF3108482F310880568AE689643AE6050
:1043800084F3108820241C6000238366436604683D
:10439000904DAC420DD0646824020AD5EFF310842E
:1043A00082F31088950606683768AF43376084F358
:1043B0001088046E012C15D10366EFF3108382F38D
:1043C00010880468256810229543256083F31088BF
:1043D0000368DC69E40600D51A620988FFF722F950
:1043E00001B0F0BDFFF7CEF901B0F0BDF0B581B07E
:1043F000044601680868764A0240A06823690343BE
:10440000606918431043E2691043086003263003D3
:104410004B688343E06818434860A5696D4B994237
:1044200002D0206A284300E028460B252D028F6821
:10443000AF4307438F606848814214DD0027674817
:1044400081421FD0664881421CD06648814243D1D8
:104450006648C06C8007000F66A52F580125E80349
:10446000994213D13DE06048814205D0994233D151
:104470005E48C06C000A01E05C48C06C0C25054039
:104480005B4847590125E80399422AD0824212D15C
:10449000082F00D996E0C0467F443F797F00BF4493
:1044A000043C4691529191917300FEF7FDF800286B
:1044B00000D069E085E0082F00D983E07F443F7990
:1044C0007F00BF44042F3A7F457F7F7F7200FEF755
:1044D000EBF8002869D174E010270125E803994220
:1044E000D4D1082F6ED8C0467F443F797F00BF44A7
:1044F000046909690F6969693500FEF7D5F8002874
:104500002CD15EE039480068C00626D53E4825E03B
:10451000FEF7E4F8002821D153E0FEF7CFF8002899
:1045200032D14EE0FEF7CAF800283ED149E02F48CC
:104530000068C00627D5344826E02C480068C0062D
:1045400032D5314831E0FEF7C9F800281CD138E0F7
:10455000FEF7C4F8002828D133E02A4862685643A1
:10456000B0422FD3110388422CD8010E5608000206
:10457000002380195941FBF7B9FE25494118254A06
:1045800091421CD31EE01F48400061684A08101881
:1045900000F02EFC0246103A1C498A4212D2014019
:1045A0000007400F08430AE0164861684A081018DF
:1045B00000F01EFC01461039144A914202D22168D3
:1045C000C86000250020A066E066284601B0F0BD66
:1045D000F369FFEF00480040FF4B0040004C0040F3
:1045E00000500040003801400044004000100240EC
:1045F000EC5100080100000004000000020000006F
:10460000080000000024F40000093D00F0FF000055
:1046100000FDFFFF00FD0F0070B55823C252416539
:1046200000218166034658335A80846802468032EE
:10463000002C12D001252E07B44208D02D03AC4225
:1046400014D10469002C0ED1254C9C800FE0046924
:10465000002C05D03F249C8009E00469002C02D086
:104660007F249C8003E0FF249C8000E099805160BF
:1046700022211160EFF31082012181F31088036879
:104680009C680C439C6082F3108802690B03846869
:104690009C4204D1002A14D0124A826603E0114BD6
:1046A0008366002A0FD0EFF3108281F3108809216E
:1046B0004901006803680B43036082F310880020FF
:1046C00070BD094A8266EFF3108281F3108800689A
:1046D000016820230B43036082F31088002070BD23
:1046E000FF010000154300083D420008F0B585B009
:1046F0001F4615460E460368D9693140891B4A4258
:104700004A410021AA4222D10A9C002C22D00391C6
:10471000611C24D1D9693140891B4A424A41AA42CD
:1047200031D1D9693140891B4A424A41AA422AD132
:10473000D9693140891B4A424A41AA4223D1D969E9
:104740003140891B4A424A41AA42E3D01BE0084655
:1047500005B0F0BDFDF710FD032005B0F0BD402E03
:10476000049001D0802E14D1FDF706FDC01BA0429D
:104770000CD8049800680168C0693040801B414231
:104780004141A942F0D0039805B0F0BD032005B027
:10479000F0BD7830019001200090C002029006E048
:1047A000C8693040801B41424141A942EBD1FDF72D
:1047B000E3FCC11B0320A1423ED8049909680A68A2
:1047C0005207EDD5CA69120738D4CA69029B1A424A
:1047D000E6D0029A0A62EFF31082012181F3108879
:1047E00009235B01049C246825689D43256082F3AE
:1047F0001088EFF3108281F31088049B1B689C687B
:104800008C439C60049B82F310881A6E012A0BD1A2
:10481000EFF3108281F3108819680B681024A3430A
:104820000B60049B82F310882021019CA160002270
:104830001A669A662270E16005B0F0BD08250D6227
:10484000EFF31081009880F3108809225201049B35
:104850001B681C6894431C6081F31088EFF310817F
:1048600080F31088049A1268936883439360049BD2
:1048700081F31088196E01290CD1EFF31081012208
:1048800082F310881A6813681024A3431360049BF2
:1048900081F310882021019A9160002119669966A0
:1048A0001170D56005B0F0BD80B5012000F004F8AE
:1048B0000520FDF76FFB80BDF0B589B007460520E8
:1048C00007900407012671020022089220460494F2
:1048D000FDF74AFCF806C20FD44D20210691284668
:1048E000FDF742FCB806C20F102105912846FDF7DE
:1048F0003BFCB10203917806C20F2846FDF734FC59
:1049000031020291FA092046FDF72EFCC8488024A6
:10491000214632460196FDF727FC02252846FDF781
:1049200039FBC3482146089AFDF71EFC2846FDF7CF
:1049300031FB3A463240BD4E30460699FDF714FC35
:10494000B807C20F30460599FDF70EFC7807C20F75
:1049500030460399FDF708FC3807C20F0498029906
:10496000FDF702FCB24F38462146019AFDF7FCFBE9
:104970002846FDF70FFB38462146089AFDF7F4FB61
:104980002846FDF707FB0798FDF704FB09B0F0BDCB
:1049900080B5002800D0403180200843C0B2FFF726
:1049A0008BFF80BDF0B589B06420FDF7F3FA9F4D11
:1049B00020210691012428462246FDF7D5FB10212F
:1049C000049128462246FDF7CFFBA102059100265F
:1049D00028463246FDF7C8FB0520029000070890E4
:1049E000210207913246FDF7BFFB914880252946F9
:1049F00003952246FDF7B8FB02273846FDF7CAFAB1
:104A00008B4829463246FDF7AFFB3846FDF7C2FA20
:104A10000A200190FDF7BEFA844D284606992246E9
:104A2000FDF7A2FB284604992246FDF79DFB284688
:104A300005993246FDF798FB089807993246FDF72D
:104A400093FB7B48039D29462246FDF78DFB3846A4
:104A5000FDF7A0FA764829463246FDF785FB384631
:104A6000FDF798FA0198FDF795FA704D28460699DA
:104A70002246FDF779FB284604992246FDF774FB90
:104A8000284605993246FDF76FFB0898079932468C
:104A9000FDF76AFB6648039D29462246FDF764FB45
:104AA00000973846FDF776FA614829463246FDF709
:104AB0005BFB3846FDF76EFA0298FDF76BFA5B4D2B
:104AC000284606993246FDF74FFB284604992246B0
:104AD000FDF74AFB284605993246FDF745FB089845
:104AE00007993246FDF740FB5148039F394622465D
:104AF000FDF73AFB009D2846FDF74CFA4C48394635
:104B00003246FDF731FB2846FDF744FA029D284660
:104B1000FDF740FA2820FFF7CFFE0C20FFF7CCFE70
:104B20000620FFF7C9FE2046FFF7C6FE2846FDF720
:104B300031FA09B0F0BDC046F0B589B00478002C58
:104B400071D0421C0120010207910890800206905A
:104B50000520000705900492089D6902059E3046D5
:104B60002A46FDF701FBE006C20F202103912F4FDB
:104B70003846FDF7F9FAA006C20F10210291384617
:104B8000FDF7F2FA6006C20F38460699FDF7ECFA17
:104B9000E0B2C20930460799FDF7E6FA80262448BC
:104BA00031462A46FDF7E0FA02273846FDF7F2F9CA
:104BB000002201921E483146FDF7D6FA3846FDF72D
:104BC000E9F922462A40194D28460399FDF7CCFA07
:104BD000A007C20F28460299FDF7C6FA6007C20F68
:104BE00028460699FDF7C0FA2007C20F05980799D5
:104BF000FDF7BAFA0E4C20463146089AFDF7B4FA92
:104C00003846FDF7C7F920463146019AFDF7ACFA60
:104C10003846FDF7BFF90520FDF7BCF904994A1C99
:104C20000C78002C97D109B0F0BDC04600040050AC
:104C3000000800509EB0FDF7ADFA10AC38212046B8
:104C4000FBF74DFC00250F950E950D950C950B95DA
:104C500001A82821FBF743FC0327F80244490A680E
:104C6000824301201390C302D2180A601C951B9541
:104C700002261A9610211491109680051D90204648
:104C8000FDF768FD002803D0EFF3108072B6FEE751
:104C90000F950E950D950C970F200B900BA80121E9
:104CA000FDF7FEFB002803D0EFF3108072B6FEE79D
:104CB0000595019601A8FDF7D7FA002803D0EFF378
:104CC000108072B6FEE7FEF7CDFFFFF769F8FFF739
:104CD00087F8FFF7A5F82748FEF71CFE02242046B8
:104CE000FDF77EF8FDF71BF8FFF75CFE2B20032194
:104CF0000A46FEF737FEFDF721F91FA0FFF7ACF8D3
:104D0000224D2846FDF746F9FDF7FCF820A0FFF7F5
:104D1000A3F82846FDF73EF9FDF710F91FA0FFF7AD
:104D20009BF82846FDF736F92046FFF78DF91FA0BE
:104D3000FFF792F826A42AA5FFF7B6FD10A820A138
:104D40000246C8C9C8C20B88138089789170FFF7E2
:104D5000F3FE01200021FFF71BFE2046FFF7ECFECB
:104D60002846FFF779F86420FDF714F9E4E7C04618
:104D700000700040D801002044465F496E697420ED
:104D800066696E69736865640D0A0000701700003B
:104D900044465F5061757365200D0A0044465F52BA
:104DA0006573756D65200D0A00000000536F756E08
:104DB000645F547261636B2032200D0A00000000B2
:104DC00048656C6C6F20576F726C64203121000055
:104DD00048656C6C6F20576F726C64203221000044
:104DE00068656C6C6F20776F726C64210D0A00002F
:104DF00043088B421AD3002203098B4279D3030A5A
:104E00008B425ED3030B8B4242D3030C8B4227D3DE
:104E10000902FF2212BA030C8B4202D312120902BA
:104E200003D0030B8B4233D31AE0D3E0411A804105
:104E3000401C704703460B4371D443088B42F5D3A3
:104E4000002203098B4254D3030A8B4239D3030B4C
:104E50008B421DD3030C8B4202D394466EE0090AA9
:104E6000C30B8B4201D3CB03C01A5241830B8B423D
:104E700001D38B03C01A5241430B8B4201D34B0326
:104E8000C01A5241030B8B4201D30B03C01A52418B
:104E9000C30A8B4201D3CB02C01A5241830A8B4210
:104EA00001D38B02C01A5241430A8B4201D34B02F9
:104EB000C01A5241030A8B4201D30B02C01A52415D
:104EC000CDD2C3098B4201D3CB01C01A5241830911
:104ED0008B4201D38B01C01A524143098B4201D34B
:104EE0004B01C01A524103098B4201D30B01C01A76
:104EF0005241C3088B4201D3CB00C01A52418308F0
:104F00008B4201D38B00C01A524143088B4201D31C
:104F10004B00C01A5241411A524110007047CA0F4B
:104F200000D04942031000D34042534000229C4627
:104F300003098B422DD3030A8B4212D38901FC2231
:104F400012BA030A8B420CD3890192118B4208D307
:104F5000890192118B4204D3890137D0921100E06C
:104F60008909C3098B4201D3CB01C01A524183097D
:104F70008B4201D38B01C01A524143098B4201D3AA
:104F80004B01C01A524103098B4201D30B01C01AD5
:104F90005241C3088B4201D3CB00C01A524183084F
:104FA0008B4201D38B00C01A5241D9D243088B42A5
:104FB00001D34B00C01A5241411A00D2014652415E
:104FC000104663465B1000D34042704763465B1057
:104FD00000D3404201B50021004201D0C943084638
:104FE000C046C04602BDF8B5040C8BB2264682B25C
:104FF0005E43104658430D0C370C360400218019CF
:10500000164679416E43370C36048019264679419D
:105010006E438919F8BD00004900CA02024310001E
:1050200000D004204A0D01D001221043044A490D4A
:10503000914201D102210843012800D10520704787
:10504000FF07000030380A2801D2012070470020F5
:105050007047000010B500290AD00878002807D052
:1050600005487844FCF7FCFD002801D0002010BD65
:105070000248784410BD0000BA010000B2010000EF
:1050800010B500290AD00878002807D005487844D0
:10509000FCF7E6FD002801D0002010BD024878444E
:1050A00010BD0000AA010000A201000003B40248E4
:1050B0007844844603BC604749BEFFFF03B40248FE
:1050C0007844844603BC6047B1C0FFFF0000000085
:1050D0000000000030313233343536373839414240
:1050E000434445464030580030313233343536374A
:1050F00038396162636465664030780004000008F6
:1051000000000000000000020001000010303132F9
:1051100033343536373839616263646566787000D8
:1051200030313233343536373839414243444546DD
:105130005850000002400000000000A000000000E5
:1051400005400000000000C8000000000C40000006
:105150000000409C00000000194000000020BCBE80
:105160000000000034400000BFC91B8E0000000496
:10517000B5400000504BCFD06607E2CF01000000E1
:105180006C4100003E8251AADFEEA734010000000E
:10519000D9420000DCB5A0E23A301F97FFFFFFFFC5
:1051A000B4450000FD25A0C8E9A3C14FFFFFFFFFE4
:1051B000FF3F00000000008000000000FF3F0000F3
:1051C000000000800000000000000000000000005F
:1051D000010203040607080900000000010203049D
:1051E000030406080C101820300000000000000026
:1051F00004000000020000000800000048530008FE
:1052000000000020100000001C0100085853000896
:1052100010000020E00800003C0100081C00000015
:1052200043000000F8FFFFFF0C0000000E0000002C
:105230000F0000002E0000001001000043000000DD
:10524000F8FFFFFF004040404040404040404141A7
:10525000414141404040404040404040404040404B
:1052600040404040400502020202020202020202E5
:1052700002020202022020202020202020202002E2
:105280000202020202029090909090901010101072
:10529000101010101010101010101010101010100E
:1052A00002020202020288888888888808080808A2
:1052B000080808080808080808080808080808086E
:1052C0000202020240000000000000000000000096
:1052D00000000000000000000000000000000000CE
:1052E00000000000000000000000000000000000BE
:1052F00000000000000000000000000000000000AE
:10530000000000000000000000000000000000009D
:10531000000000000000000000000000000000008D
:10532000000000000000000000000000000000007D
:10533000000000000000000000000000000000006D
:105340000000000000000000010000000400000058
:08535000000020000000000035
:04000005080000C12E
:00000001FF
