:020000040800F2
:100000006007002081010008C12000081D1C0008B5
:1000100000000000000000000000000000000000E0
:10002000000000000000000000000000D9210008CE
:100030000000000000000000C3200008DB210008D1
:100040009301000893010008930100089301000840
:100050009301000893010008930100089301000830
:100060009301000893010008930100089301000820
:100070009301000893010008930100089301000810
:10008000930100089301000893010008000000009C
:1000900093010008930100089301000893010008F0
:1000A00093010008930100089301000893010008E0
:1000B00093010008930100089301000893010008D0
:1000C00000F002F800F04CF812A030C808382418EC
:1000D0002D18AC4201D100F043F80FCCA246AB463C
:1000E0000CA730CF2D1B083F3F197C427F1E544484
:1000F0002D090426F441641EAC4201D300F030F80F
:100100000126334200D0FB1A3343984754465D46DC
:10011000DFE700005C2900007C290000103A02D3D0
:1001200078C878C1FAD8520701D330C830C101D598
:1001300004680C6070470000704700000023002432
:1001400000250026103A01D378C1FBD8520700D30E
:1001500030C100D50B6070471FB51FBD10B510BD75
:1001600000F0D5F81146FFF7F7FF02F001FB00F0B1
:10017000EDF803B4FFF7F2FF03BC00F0F3F8000062
:100180000748804707480047FEE7FEE7FEE7FEE72F
:10019000FEE7FEE704480549054A064B70470000A4
:1001A000E3210008C1000008600100206007002072
:1001B0006003002060030020FEB5044610460D4693
:1001C000184373D0A6468C460020A41A01469D41D0
:1001D00067D36646002701243D46B61A9D4102D3E7
:1001E00013463A462124654676462F04360C3E4394
:1001F0002D0CB61A9D4104D3150C1B042B4312047D
:100200001034654676462F06360A3E432D0AB61A46
:100210009D4104D3150E1B022B4312020834654680
:1002200076462F0736093E432D09B61A9D4104D361
:10023000150F1B012B431201241D65467646AF079F
:10024000B6083E43AD08B61A9D4104D3950F9B00F6
:100250002B439200A41C65467646EF0776083E4382
:100260006D08B61A9D411AD392185B41641C16E0C2
:100270000018764665464941B71A9D4101910090A4
:1002800009D36046B11A98418E4684460098019978
:100290000025401C6941DD0752082A435B08641EA3
:1002A000E6D57246634603B0F0BDFFE7204628431B
:1002B00007D00020C0430146C046C04622462B4618
:1002C000F1E700200146F7E701E004C0091F042917
:1002D000FBD28B0701D50280801CC90700D00270B9
:1002E000704700290BD0C30702D00270401C491E82
:1002F000022904D3830702D50280801C891EE3E70C
:100300000022EEE70022DFE770477047704775462E
:1003100000F024F8AE46050069465346C008C00008
:10032000854618B020B5FFF735FF60BCB6460026FD
:100330000027C0C5C0C5C0C5C0C5C0C5C0C5C0C5F3
:10034000C0C5403D490849008D46704710B5044678
:10035000C046C0462046FFF70CFF10BD004870475E
:100360001000002001491820ABBEFEE72600020065
:100370007047B0B588B006A80024C4708470082106
:100380004170047002A8C4708470417004700794B6
:100390000594049403940194009401F041FC002816
:1003A00044D001F0E5FC002840D02020232101AA00
:1003B00001F0BEFD242027216A4601F0B9FD00248A
:1003C000032107AA204601F0B3FD0425072106AA50
:1003D000284601F0ADFD08200B2105AA01F0A8FD7B
:1003E0001020132104AA01F0A3FD1420172103AA51
:1003F00001F09EFD18201B2102AA01F099FD60204A
:10040000294601F069FD7020012101F065FD2A20D7
:10041000214601F061FD2920E52101F05DFD282044
:10042000832101F059FD01F0FDFC0446204608B08F
:10043000B0BD0000F0B581B004462E4D00262E6000
:1004400001F05AFC287141070FD461682078022816
:100450001DD1480BE02202408803800F1218083299
:100460004B0D0F0A8126402033E0C10614D4616889
:100470002078022822D1480BE02202408803800F16
:10048000121808324B0D0F0A8226422021E04A0141
:10049000130A812640201AE0400628D4616820789B
:1004A000022810D1480BE02202408803800F121866
:1004B00008324B0D0F0A842644200AE04A01130A31
:1004C0008226422003E04A01130A842644200021A8
:1004D0000F46AF70E9706A702B70227A0934294692
:1004E000234601F0D9FB304601F028FC01263046B6
:1004F00001B0F0BD70000020EFF3108072B6FEE78F
:10050000B0B5044600F0D8F80546601C02D08A4811
:100510000078041900F0D0F8401BA042FAD3B0BD17
:10052000F0B58AB007900B68002B00D1B3E00E46FF
:100530005A480799814201D0062000E005200B218E
:100540000907079A52180A21CA410192052A00D3C5
:100550000190079820300090002215461746029619
:1005600019460BE021434E4801607F1C3168084664
:10057000F840121DAD1C002800D18CE00123184664
:10058000B8400140F1D0059306920391324603260C
:100590003146A9400495CD4351680C463440631E52
:1005A000012B0895099110D807998B682B40D668C4
:1005B000049DAE401E438E60099AD306DB0FBB40FC
:1005C0004E6886431E434E6006E0032C049D03D113
:1005D0003446029E069A1DE00799C868089A1040A2
:1005E000029EB368AB400343CB60022C069A11D144
:1005F0001C2010400F218140FB089B00009AD4581A
:100600008C43316981402143D150069A706803249C
:1006100009900440AC4007990868089B18402043A3
:10062000086009988003800F059B9ED0494908689F
:10063000184308600C2010400F21814003233C46E2
:100640009C43184BE3588B4301998140194315484B
:100650002150134881687068C30202D5039C21436E
:1006600001E0039CA1430E4B9960D968830201D538
:10067000214300E0A1430A4BD9605968830301D5A7
:10068000214300E0A143064B59601968C00300D51F
:1006900068E7A14367E70AB0F0BDC046001C005000
:1006A0000004014008000140002A02D018228150B5
:1006B0007047282281507047054800687047C0463F
:1006C0001D48007802490A68101808607047C04643
:1006D0005801002010B50848016840220A43026012
:1006E0000024204600F00AF8002801D0012010BDA7
:1006F00000F026F8204610BD0020024070B50446E8
:100700007D20C0000C4E317802F09EF801460B4867
:10071000006802F099F801F0FFF90125032C08D8D0
:10072000002806D10025E84321462A4600F014F8A7
:100730007460284670BDC0460000002008000020FC
:1007400004480168012211430160110742680A430D
:100750004260704734100240002805D4032203464B
:1007600093430A4A9A1803E00C220240064BD2181F
:100770008007C00E8901C9B28140FF238340106801
:10078000984308431060704714ED00E000E400E077
:10079000F0B589B0066801252F02EA021146203122
:1007A000874B0E427CD0059208902907143B1868AD
:1007B0000840049002D11868084318600193029120
:1007C000804C2068384211D1206838432060FFF700
:1007D00073FF06462068384208D1FFF76DFF801B83
:1007E0006428F7D90325284609B0F0BD032634054F
:1007F00073484C38069001682140089B58680246AF
:10080000039422400096340491420AD102462240C9
:10081000A242069E0DD19A68039B1A40914205D1CF
:1008200007E001462140A142069E02D131688903BA
:10083000D9D4634B59680794214021D0079A1040BE
:10084000814203D00898007880060AD4089880680E
:10085000079A1040814213D0089800680599084211
:100860000ED05868E9045A680A435A605A688A43A5
:100870005A600146079A91435960384200D08CE093
:100880000898066805990E42079C59D1B1066DD4A7
:100890000499002904D1019C2168029A91432160A6
:1008A000F1070DD1B10713D4710719D4310720D442
:1008B0003E4227D171062ED40025310693D535E06E
:1008C000196803229143C2680A431A60B107EBD545
:1008D00019680C22914302690A431A607107E5D531
:1008E000032189021A688A4341691143196031075B
:1008F000DED5032109031A688A438169114319600F
:100900003E42D7D0032109041A688A43C1691143C2
:1009100019607106D0D5012189061A688A43416A97
:10092000114319600025310600D45CE703218A04D5
:1009300019689143006A08431860284609B0F0BD61
:10094000826811462140A1420BD103980240032343
:100950001B05069D2C689C43194B089814432C607A
:10096000079C5A680A435A60B10691D542681146FD
:100970002140A1420AD10398024003231B05069D92
:100980002C689C430E4B089814432C605A680A4309
:100990005A600499002983D17DE7FFF78DFE054653
:1009A000884C074B5868800500D569E7FFF784FE3F
:1009B000401BA042F5D9009D284609B0F0BDC046B5
:1009C0004C10024000700040F0B583B0002846D0C3
:1009D0000E4602907A480068012101910840B04219
:1009E00016D2774908680125A84330430860754C42
:1009F000FFF762FE0746724800682840B04207D001
:100A0000FFF75AFEC01BA042F5D9032003B0F0BD8A
:100A1000029D28688107794C05D52168F022914311
:100A2000AA680A432260C0071CD1654800680127F4
:100A30003840B04224D962490868B8430860614C24
:100A4000FFF73AFE05465E480068C00718D0FFF77A
:100A500033FE401BA042F6D9032003B0F0BD0120B5
:100A600003B0F0BD6A6821460C390968012A34D008
:100A7000032A2DD0022A72D1890301982BD52FE0A9
:100A8000029B186841075D4C06D5072109022268C0
:100A90008A43D96811432160000707D50720C002A7
:100AA000216881431869C000084320602168080755
:100AB000820F6E487A441279520097440154735B56
:100AC00038042146083909680904490F884069E05B
:100AD0008901019804D403B0F0BD49070198FAD503
:100AE000216803200190814311432160FFF7E4FD59
:100AF00007466868334D03282BD002281ED00128F2
:100B00000AD120680C21014004298ED0FFF7D4FDC2
:100B1000C01BA842F5D909E020680007800F00D16A
:100B200083E7FFF7C9FDC01BA842F5D9019803B0C0
:100B3000F0BDFFF7C1FDC01BA842F7D820680C210B
:100B400001400829F5D170E7FFF7B6FDC01BA842A8
:100B5000ECD820680C2101400C29F5D165E7890506
:100B60000198B8D5BCE720460C380068C00612D5FD
:100B7000414817E08A02120F3D4B9A5C0902890F27
:100B8000491C2368DB0309D420460C380068C006E2
:100B900003D5394802E0374804E03648424310465E
:100BA00001F052FE21680906090F074A515CC8404E
:100BB0001149086005480068FFF7A0FD03B0F0BDCB
:100BC00000200240881300003E2A00080400002094
:100BD00009480068094909684905490F084A515CF4
:100BE000C840704704480068044909688904490FEF
:100BF000034A515CC8407047080000200C100240B6
:100C00004E2A000810B5854BD9680807820F17488F
:100C10007A441279520097440108070D012000041C
:100C200059680904490F884010BD1868C00614D5DA
:100C3000114810BD8A02120F0D4CA25C0902890FE7
:100C4000491CDC68E40303D41868C00607D50A48C9
:100C50004243104601F0F8FD10BD064810BD05489E
:100C60004243104601F0F0FD10BDC04600127A006C
:100C7000562A00080024F40000093D00F0B589B0B0
:100C8000002856D0654EF1680C220A4006920121D8
:100C900005910904F76804910F4007900078C00798
:100CA00010D00698082806D006980C2800D0D7E067
:100CB000002F00D1D4E03068800303D50798406846
:100CC000002852D007980078800735D4079800781C
:100CD000C0064DD407980078000767D407990878B4
:100CE000400700D59CE00878800600D51FE10798F2
:100CF000846A002C1AD006980C2800D068E1012CD8
:100D000033D0F068049A0240079BD96A8A422CD1FA
:100D10000F21890401401A6B914226D103218905D4
:100D20000840596B8842059800D056E2002009B06F
:100D3000F0BD012009B0F0BD079BD868810604D53D
:100D4000316820221143316090430699042906D06E
:100D500006990C2900D0A9E0002F00D0A6E0316848
:100D600000283AD10422114037D0059809B0F0BDCF
:100D7000012044020699002900D1ADE03168079AAC
:100D8000D2690002002A00D101E101433160FFF77E
:100D900093FC05463068204200D008E1FFF78CFC48
:100DA000401B0228F6D9032009B0F0BD306D079929
:100DB0004969002900D1D9E0012108433065FFF7D6
:100DC0007BFC0546306D800788D4FFF775FC401B1F
:100DD0000228F7D9032009B0F0BD1F21090272686B
:100DE0008A431969090211437160316809229143EC
:100DF00001433160F1680807820FF9485200C0468C
:100E00007A4492885200974403002401D9013A01A0
:100E100070680004410F04988840CFE10010024040
:100E200001221107B06B0840029002D1B06B084359
:100E3000B063019103921402F04F3868C00523D4C7
:100E4000386820433860FFF737FC05463868204291
:100E50001AD1FFF731FC411B03206429F6D9BCE10C
:100E6000306807994968049A914209D00522120412
:100E7000914200D0CDE00599890408433060306884
:100E8000049908433060D3E007988168306D039B74
:100E90005F02002900D12AE105221202914200D10D
:100EA0001FE1A14200D036E1204339E1316800283A
:100EB00000D1D3E00922914301433160FFF7FCFBED
:100EC00005463068400700D501E1FFF7F5FB411BFF
:100ED00003200229F5D980E13168214204D0079925
:100EE000C969002900D178E1072040037168814376
:100EF000079B586A01437160FF21090672688A43A3
:100F0000196A090689187160400B04998140F068DC
:100F10000006000FB64A105CC140B6480160B648F2
:100F20000068FFF7EBFB002800D056E1D2E6B0687E
:100F300007998969002900D1B3E001210843B06015
:100F4000706B084370634803AE490A6802430A6045
:100F5000FFF7B2FB0546B068800700D5C7E6FFF78C
:100F6000ABFB411B03200229F5D936E1012188435F
:100F70003065FFF7A1FB0546306D800700D4ADE674
:100F8000FFF79AFB411B03200229F5D925E1814394
:100F90003160FFF791FB05463068204200D199E6A9
:100FA000FFF78AFB411B03200229F5D915E1072031
:100FB000400371688143079A506A08437060FF20BC
:100FC000000671688143106A00064018706081E66F
:100FD0000120010632688A4332604706FFF76CFB46
:100FE0000546022C0AD13068384200D1C3E0FFF731
:100FF00063FB411B03200229F5D9EEE0306838423B
:1010000000D193E6FFF758FB411B03200229F5D9D5
:10101000E3E0049A904330603068104008900898EC
:1010200005988004326882433260002900D192E042
:1010300005984404FFF740FB05463068204200D085
:1010400040E6FFF739FB401B6428F6D9032009B0BE
:10105000F0BD3068C0067CD56448AFE00120814314
:101060003160FFF729FB05463068400700D42DE6C4
:10107000FFF722FB411B03200229F5D9ADE08A02CC
:10108000120F584B9A5C0902890F491CF368049CA3
:10109000234200D08EE03068C00600D489E0534877
:1010A00088E001218843B060480356490A688243BA
:1010B0000A60FFF701FB0546B068800700D416E61A
:1010C000FFF7FAFA411B03200229F5D985E01F201A
:1010D000000271688143079800690002084370604C
:1010E000F4E5990208433065306D204318E0A043D1
:1010F00030659802316D81433165FFF7DDFA0546B1
:101100003F4C306D38421AD0FFF7D6FA411B03200E
:10111000A142F6D961E0A04330659902306D884361
:101120003065FFF7C9FA0546354C306D384206D1B7
:10113000FFF7C2FA411B0320A142F6D94DE0029805
:101140000028079900D0CEE5B06B019A9043B063B8
:10115000C9E5254832E005984404FFF7ADFA054695
:101160003068204200D1ADE5FFF7A6FA411B03200D
:101170006429F5D931E0FD200004F1688143079B23
:101180002C330DCB084310431843F0601E48401C1D
:10119000316801433160FFF78FFA04463068384206
:1011A00000D0C3E5FFF788FA011B03200229F5D917
:1011B00013E00D484243104601F046FBF168090672
:1011C000090F0B4A515CC8400A4908600A48006888
:1011D000FFF794FA002800D178E509B0F0BDC046C9
:1011E00000127A00562A00080024F40000093D008D
:1011F0003E2A000808000020040000200070004083
:101200008813000020000140FFFFFF005121405CD7
:101210007047F0B583B000280AD00446503441210D
:101220008F00416A002906D000210161142106E0E7
:10123000012003B0F0BD4168B94202D01C21002258
:1012400042500021029181626178002905D100217C
:101250002170054600F03EF82846022565700168B9
:101260000A6840239A430A6042683A4021239B025D
:10127000019484681C40A4180122D602C36833403C
:10128000E31804692C401C43436913402343FC3793
:1012900085692F401F43C36938241C403C43036ABF
:1012A00080271F4027435303846A1C403C430C6043
:1012B000436A10241C402B0C04251D4063194B600D
:1012C000CB69B343CB6102994165019842700846EE
:1012D00003B0F0BDF0B587B00025069505950495DF
:1012E0000395029500681949884201D007B0F0BD06
:1012F00001210A03164883681343836002680A4386
:10130000026002680A400192019901680226314395
:101310000160006830400190069503270597049509
:101320000396C020029001980520000702AC2146D8
:10133000FFF7F6F8069505970495039608200290A6
:1013400004482146FFF7ECF807B0F0BD003001403B
:101350002C10024000040050F0B587B006930446FC
:10136000064650367078022501283ED1012000291A
:1013700000D1ECE0002A00D1E9E004924120820093
:101380006068904203D1A068002800D1BFE00392BA
:101390000F46FFF791F90590307801282846049A06
:1013A00000D1D4E039460420707000276765E287D9
:1013B00001233370A287A163A7862763276467642C
:1013C000E78620680493DA03A168029291423AD03A
:1013D00001684906069D43D5E08FE168002947D0A2
:1013E00000287BD0681C0ED11DE0284607B0F0BD58
:1013F000A16BC0680880881CA063E08F401EE08756
:10140000E08F00286AD020688168C907F0D1FFF713
:1014100053F90599401AA842F2D344E0FFF74CF97A
:10142000E08F00285AD020688168C907F6D0A16BE8
:10143000C0680880881CA063E08F401EE087E08FB2
:101440000028F0D14AE001684022914301600499EC
:10145000890302688A43026001684906069DBBD47D
:10146000016840220A430260E08FE1680029B7D199
:10147000002833D0681C0CD120E0007BA16B0870E1
:10148000A06B401CA063E08F401EE087E08F002827
:1014900024D020688168C907EFD1FFF70DF90599BD
:1014A000401AA842F2D3377004987070032007B036
:1014B000F0BDFFF701F9E08F00280FD020688168A8
:1014C000C907F6D0007BA16B0870A06B401CA0631D
:1014D000E08F401EE087E08F0028EFD1606803991D
:1014E000884210D1A0680299884203D004998902E9
:1014F000884217D121680A6840239A430A600499F8
:10150000890288420ED10598009001210DE0042047
:1015100070700698009020460A46049B00F056F929
:1015200007B0F0BD059800908021002220462B4690
:1015300000F0C8FD002804D0606D202108436065DC
:101540006165049870703770606D411E884107B006
:10155000F0BD0000F0B589B0059316460D4604466F
:1015600007465037FFF7A8F879780222012952D1AF
:1015700004970127002D4FD0002E4DD004990978F3
:101580000129174648D00327049A57700021616546
:10159000E68601231370A6862563A187A1632164D3
:1015A00061640291E18722680393D9031346A2681C
:1015B0008A4208D11968402291431960039989032E
:1015C0001A680A431A6006901968490603D4196814
:1015D00040220A431A60019361684A424A41731EDD
:1015E0005942594111430398C202E368934242D1E0
:1015F0000029059E069B07D029880198C160A81C78
:101600002063E08E401EE086E08E0028029D79D0A7
:10161000701C0FD11FE01746384609B0F0BD216B92
:101620000A88C260881C2063E08E401EE086E08E3F
:10163000002867D0206881688907F0D4FFF73CF85C
:10164000069BC01AB042F2D33FE0FFF735F8069B85
:10165000E08E002856D0206881688907F5D5216B77
:101660000A88C260881C2063E08E401EE086E08EFF
:101670000028F0D146E00029059E069B08D0297875
:1016800001980173206B401C2063E08E401EE086B1
:10169000E08E0028029D35D0701C0CD122E0216B19
:1016A00009780173206B401C2063E08E401EE086A9
:1016B000E08E002826D0206881688907EFD4FEF7E5
:1016C000FBFF069BC01AB042F2D304980570039941
:1016D0004170384609B0F0BDFEF7EEFF069BE08E84
:1016E00000280FD0206881688907F5D5216B09781B
:1016F0000173206B401C2063E08E401EE086E08E6C
:101700000028EFD100930221012720463A463346B4
:1017100000F0D8FC002817D0606D202108436065D8
:101720006165A068002806D107952068C168079107
:10173000806807900798049847700570676D781E59
:101740008741384609B0F0BDF1480068F14901F021
:101750007BF87D21C90041430891412080006168E8
:1017600081420AD10698009080210022204633460B
:1017700000F0A8FC0028CFD1D3E708980028D0D0EB
:101780000898401E0890206880680006C9D508980F
:101790000028C6D00898401E08902068806800067F
:1017A000BFD508980028BCD00898401E0890206833
:1017B00080680006B5D508980028B2D00898401E69
:1017C0000890206880680006D7D4AAE7F0B587B0F3
:1017D0001E4615460391074604465034FEF76CFF3B
:1017E00004900294617801290ED101200399002907
:1017F00015D0002D13D0002E11D0029908780128A1
:101800000FD1022007B0F0BD412082007B6802208A
:10181000934204D1042902D1B9680029E5D007B068
:10182000F0BD0120044608704878042801D0052046
:10183000487000207865FE87FE86BD63BE870399E9
:101840003963386401907864BE8638680168490657
:1018500003D4016840220A4302600C9D79684A4221
:101860004A41731E594259411143E202FB689342B7
:101870003DD1002907D0039A1188C160901C3863BC
:10188000F88E401EF8862E46681C7BD00125049CED
:1018900004E0FEF711FF001BB0426BD2F88E002867
:1018A00003D1F88F002800D1C7E038688168890724
:1018B0000DD5F98E00290AD0012D08D1396B0A887F
:1018C000C260891C3963F98E491EF986002581683A
:1018D000C907DED0F98F0029DBD0B96BC06808805A
:1018E000881CB863F88F401EF8870125D1E70029CE
:1018F00008D0039909780173386B401C3863F88E5F
:10190000401EF8862E46681C68D0019D05E0FEF753
:10191000D3FE0499401AB0422CD2F88E002803D18D
:10192000F88F002800D188E038688168890710D5D1
:10193000F98E00290DD02146012C0AD1396B097886
:101940000173386B401C3863F88E401EF886386887
:101950002C468168C907DAD0F98F0029D7D0B96B36
:10196000C0680870B86B401CB863F88F401EF887D9
:101970000124CCE700200299087001204870032060
:1019800007B0F0BD012501E0FEF796FEF88E0028B5
:1019900002D1F88F002850D03868816889070DD5AA
:1019A000F98E00290AD0012D08D1396B0A88C2604E
:1019B000891C3963F98E491EF98600258168C9079B
:1019C000E2D0F98F0029DFD0B96BC0680880881C8D
:1019D000B863F88F401EF8870125D5E7012501E09F
:1019E000FEF76AFEF88E002802D1F88F002824D076
:1019F0003868816889070FD5F98E00290CD0012D30
:101A00000AD1396B09780173386B401C3863F88E42
:101A1000401EF886386800258168C907E0D0F98F34
:101A20000029DDD0B96BC0680870B86B401CB86382
:101A3000F88F401EF8870125D2E7049C009402210C
:101A4000012238461546334600F03CFB00280AD0F8
:101A5000786D2021084378650020029A107079651E
:101A6000284607B0F0BD2A4800682A4900F0ECFE7D
:101A70007D21C9004143069141208000796881425F
:101A800009D10094802100223846334600F01AFB29
:101A90000028DDD127E00698002824D00698401EB3
:101AA00006903868806800061DD5069800281AD070
:101AB0000698401E069038688068000613D5069880
:101AC000002810D00698401E0690386880680006EE
:101AD00009D50698002806D00698401E069038685A
:101AE00080680006D7D4B868002807D10020059088
:101AF0003868C168059180680590059801200299B1
:101B0000487000200870786D411E884107B0F0BD14
:101B10000800002000366E01401E010E01D0012099
:101B200070470749074A5060074803680B40032184
:101B300089075918016000209060072111607047E3
:101B4000FFFFFF0010E000E020ED00E0B0B500284E
:101B50001DD00446C06F002805D1782000212154F3
:101B6000204600F02BF82420E0672068016801255A
:101B7000A9430160606A002802D0204600F032FBD1
:101B8000204600F001FC002803D02846B0BD01200B
:101B9000B0BD0920C00221684A6882434A60886853
:101BA0002A22904388600868012202430A60204686
:101BB00000F082FB05462846B0BD000010B586B097
:101BC0000021059104910391029101910068114A4D
:101BD000904201D006B010BD012042040E4BDC68DB
:101BE0001443DC601A6802431A601A6802400092CB
:101BF00004200590032004900391022002900C2001
:101C0000019005200007009901A9FEF789FC06B0A4
:101C100010BDC046004400402C100240FEE700000A
:101C200010B5D948402101242246FEF73DFDD74892
:101C3000FFF7ECFA01282DD0D448FFF7E7FA012886
:101C400028D0D248FFF7E2FA012823D0CF48FFF787
:101C5000DDFA01281ED0CD48FFF7D8FA012819D0A7
:101C6000CA48FFF7D3FA012814D0C848FFF7CEFAC4
:101C700001280FD0C548FFF7C9FA01280AD0C34888
:101C8000FFF7C4FA012805D0C048FFF7BFFA401E8D
:101C900044424441204610BDF0B585B0029316463B
:101CA00000910446E648402101910022FEF7FCFC29
:101CB00003A90C70F24D01240A27284622463B4610
:101CC000FFF748FC0422284600993B46FFF742FCF8
:101CD00004A90E70284622463B46FFF73BFC2846E7
:101CE000029932463B46FFF735FCD548019922461A
:101CF000FEF7DAFC05B0F0BDF0B583B0D048402562
:101D000000222946FEF7D0FC01A9A0200870DC487B
:101D100001260A2432462346FFF71CFC02AFD848AE
:101D2000394632462346FFF717FB3C78C44829461C
:101D30003246FEF7B9FC204603B0F0BD70B582B064
:101D40000646BF4C4025002220462946FEF7ACFC43
:101D500001A90E70CA4801260A233246FFF7FAFB92
:101D6000204629463246FEF79FFC02B070BDC046B1
:101D7000F0B587B0B248402400222146FEF794FC1B
:101D800001A902200870BE4D01270A2628463A46BE
:101D90003346FFF7DFFB02A90F20087028463A46BA
:101DA0003346FFF7D7FB03A98020087028463A4640
:101DB0003346FFF7CFFBA24821463A46FEF774FCB4
:101DC0004021009100229E48FEF76EFC04A90320EA
:101DD000087001240A25AA48074622462B46FFF729
:101DE000B9FB05A90E200870384622462B46FFF79E
:101DF000B1FB06AFA248394622462B46FFF7ACFAA4
:101E00003D788F4800992246FEF74EFCE02129409C
:101E1000802902D0761E3006D2D18039484248410E
:101E200007B0F0BDF0B589B085484021029100258A
:101E30002A46FEF739FC03A902200870904C0127BE
:101E40000A2620463A463346FFF784FB04A90F20B2
:101E5000087020463A463346FFF77CFB05A90D7013
:101E600020463A463346FFF775FB754802993A46D5
:101E7000FEF71AFC40210291002271480192FEF700
:101E800013FC06A90320087001270A257C48044694
:101E90003A462B46FFF75EFB07A90E200870204646
:101EA0003A462B46FFF756FB08AC754821463A46A2
:101EB0002B46FFF751FA2478614802993A46FEF71B
:101EC000F3FB202C02D3761E3006D3D1202C00D376
:101ED000019F384609B0F0BDF0B585B00191009082
:101EE0005748402500222946FEF7DEFB02A90220C2
:101EF0000870634C01270A2620463A463346FFF70E
:101F000029FB03A90098087020463A463346FFF79C
:101F100021FB04A90198087020463A463346FFF792
:101F200019FB474829463A46FEF7BEFB05B0F0BD0F
:101F3000F0B585B002920191044641484025002247
:101F40002946FEF7B1FB03A9022008704C48012680
:101F50000A2732463B46FFF7FDFA04A90C704848B1
:101F600032463B46FFF7F6FA0198001B401CC2B20E
:101F7000434802993B46FFF7EDFA3148294632467D
:101F8000FEF792FB05B0F0BD000400507800002081
:101F9000F0B589B00024089407940694059404943D
:101FA0002648016804221143016001681140039131
:101FB0000399016880221143016001681140039177
:101FC00003990168012529430160016829400391B3
:101FD00003990168022211430160006810400390D8
:101FE0000398052000070290202739462246FEF775
:101FF0005BFB1348402101912A46FEF755FB0694EE
:10200000212000040590680304900E4804AE314678
:10201000FEF786FA079406940595049702983146D0
:10202000FEF77EFA079506940595019804900448FA
:102030003146FEF775FA09B0F0BDC0462C100240DB
:10204000000400500008005010B50D4800210D4A52
:102050000723016241628162C36210234124A4000C
:1020600014C0FC34016041608160C160046143615F
:102070000838FFF7CEF8002801D0FEF73DFA10BD72
:10208000780000200030014010B50B4800210C22E0
:102090000A4B01624162E124640218C001604160A0
:1020A0008160C260016141610838FFF74FFD00287F
:1020B00001D0FEF721FA10BDD000002000440040FE
:1020C000FEE77047F0B583B01F4614460D460190F9
:1020D000089EFEF7F1FA301A0097C619FEF7ECFADF
:1020E000019B07463B4800684001000D7043029089
:1020F000196888682840401B424242410020A242A1
:1021000001D103B0F0BD009A521C30D0503300937F
:1021100008E0126892682A40521B53425341A3427E
:102120000E46EED0FEF7C8FAC01BB04227D2002000
:10213000029900290146019AEBD00299491E0291A9
:102140003146E6E78A682A40521B53425341A34274
:10215000D7D08A682A40521B53425341A342D0D061
:102160008A682A40521B53425341A342C9D08A680D
:102170002A40521B53425341A342E3D1C1E7019B82
:1021800018684168E02291434160412189005A6802
:102190008A420CD199680122D3039942019B02D053
:1021A0009202914203D101684022914301600121D2
:1021B0004A039B6A934205D1036893430360036813
:1021C000134303600020009A10705170032003B085
:1021D000F0BDC04608000020704780B5FEF770FAD9
:1021E00080BD7047B0B5416A0A070CD4CA0714D144
:1021F0008A071CD44A0724D4CA062CD48A0634D4AD
:102200004A063CD44CE00122D20303685C68944344
:10221000426B22435A60CA07EAD001225204036883
:102220005C689443826A22435A608A07E2D501229D
:10223000120403685C689443C26A22435A604A07E6
:10224000DAD50122920403685C689443026B22434E
:102250005A60CA06D2D50122120303689C689443CF
:10226000826B22439A608A06CAD501225203036810
:102270009C689443C26B22439A604A0610D501229F
:102280001305026854689C43056C2C4354609D42BE
:1022900006D103235B0554689C43436C234353607E
:1022A000090607D50121C904026853688B43806C75
:1022B00018435060B0BD0000F0B583B00446064638
:1022C00078360025F560FEF7F7F9034620680168C7
:1022D000090721D502952B480090012569050022A8
:1022E00020461F4600F066F9002812D0EFF3108058
:1022F00085F3108821680A6880239A430A6080F376
:102300001088032020227C21029D6250357003B08A
:10231000F0BD20683B46029D0068400726D519485D
:1023200000900127B9050022204600F043F900285B
:102330001CD0EFF3108087F310880921490122682F
:1023400013688B43136080F31088EFF3108087F3DA
:10235000108821688A68BA438A6080F31088032055
:10236000202280216250357003B0F0BD2020E0674C
:10237000B060256664212A4628466250357003B055
:10238000F0BDC046FFFFFF01F0B581B00446016813
:102390000868764A0240A0682369034360691843CD
:1023A0001043E26910430860032630034B688343FF
:1023B000E06818434860A5696D4B994202D0206AD5
:1023C000284300E028460B252D028F68AF430743C2
:1023D0008F606848814214DD0027674881421FD022
:1023E000664881421CD06648814243D16648C06C31
:1023F0008007000F66A52F580125E803994213D1E5
:102400003DE06048814205D0994233D15E48C06CBE
:10241000000A01E05C48C06C0C2505405B48475948
:102420000125E80399422AD0824212D1082F00D90F
:1024300096E0C0467F443F797F00BF44043C46910C
:10244000529191917300FEF7C3FB002800D069E020
:1024500085E0082F00D983E07F443F797F00BF44A7
:10246000042F3A7F457F7F7F7200FEF7B1FB002883
:1024700069D174E010270125E8039942D4D1082FCF
:102480006ED8C0467F443F797F00BF440469096924
:102490000F6969693500FEF79BFB00282CD15EE0CF
:1024A00039480068C00626D53E4825E0FEF7AAFB5D
:1024B000002821D153E0FEF795FB002832D14EE0F1
:1024C000FEF790FB00283ED149E02F480068C00687
:1024D00027D5344826E02C480068C00632D531485C
:1024E00031E0FEF78FFB00281CD138E0FEF78AFBB5
:1024F000002828D133E02A4862685643B0422FD3DF
:10250000110388422CD8010E5608000200238019BE
:102510005941FDF751FE25494118254A91421CD3E6
:102520001EE01F48400061684A08101800F08CF94E
:102530000246103A1C498A4212D201400007400F5D
:1025400008430AE0164861684A08101800F07CF950
:1025500001461039144A914202D22168C860002510
:102560000020A066E066284601B0F0BDF369FFEFE9
:1025700000480040FF4B0040004C0040005000402D
:10258000003801400044004000100240602A00086A
:10259000010000000400000002000000080000002C
:1025A0000024F40000093D00F0FF000000FDFFFFE3
:1025B00000FD0F00F0B585B01F4615460E460368B6
:1025C000D9693140891B4A424A410021AA4222D19D
:1025D0000A9C002C22D00391611C24D1D96931407E
:1025E000891B4A424A41AA4231D1D9693140891BEB
:1025F0004A424A41AA422AD1D9693140891B4A42FA
:102600004A41AA4223D1D9693140891B4A424A41F1
:10261000AA42E3D01BE0084605B0F0BDFEF74CF837
:10262000032005B0F0BD402E049001D0802E14D1BF
:10263000FEF742F8C01BA0420CD80498006801685D
:10264000C0693040801B41424141A942F0D003980B
:1026500005B0F0BD032005B0F0BD78300190012039
:102660000090C002029006E0C8693040801B4142E1
:102670004141A942EBD1FEF71FF8C11B0320A14243
:102680003ED8049909680A685207EDD5CA6912074D
:1026900038D4CA69029B1A42E6D0029A0A62EFF362
:1026A0001082012181F3108809235B01049C2468B6
:1026B00025689D43256082F31088EFF3108281F333
:1026C0001088049B1B689C688C439C60049B82F36D
:1026D00010881A6E012A0BD1EFF3108281F3108853
:1026E00019680B681024A3430B60049B82F31088C5
:1026F0002021019CA16000221A669A662270E16086
:1027000005B0F0BD08250D62EFF31081009880F34D
:10271000108809225201049B1B681C6894431C60AA
:1027200081F31088EFF3108180F31088049A126807
:10273000936883439360049B81F31088196E012989
:102740000CD1EFF31081012282F310881A6813680C
:102750001024A3431360049B81F310882021019A65
:1027600091600021196699661170D56005B0F0BDC1
:102770009EB0FDF7AFFF10AC38212046FDF7C2FD3B
:1027800000250F950E950D950C950B9501A8282108
:10279000FDF7B8FD0327F80229490A6882430120A2
:1027A0001390C302D2180A601C951B9502261A9634
:1027B00010211491109680051D902046FEF75EFAB8
:1027C000002803D0EFF3108072B6FEE70F950E9548
:1027D0000D950C970F200B900BA801242146FEF7B6
:1027E000F3F8002803D0EFF3108072B6FEE70595EA
:1027F000019601A8FDF7CCFF002803D0EFF310806D
:1028000072B6FEE7FFF7C4FBFFF71EFCFFF73CFCC8
:10281000FDF7AFFD10AE0D360A4FF570B57075704F
:10282000357010A84521017304701297210211918F
:10283000FDF700FE7D20C000FDF762FEEDE7C0461B
:10284000007000400857414B43088B421AD30022C6
:1028500003098B4279D3030A8B425ED3030B8B426D
:1028600042D3030C8B4227D30902FF2212BA030C76
:102870008B4202D31212090203D0030B8B4233D3D3
:102880001AE0D3E0411A8041401C704703460B43D5
:1028900071D443088B42F5D3002203098B4254D3F1
:1028A000030A8B4239D3030B8B421DD3030C8B429B
:1028B00002D394466EE0090AC30B8B4201D3CB03CB
:1028C000C01A5241830B8B4201D38B03C01A524171
:1028D000430B8B4201D34B03C01A5241030B8B4273
:1028E00001D30B03C01A5241C30A8B4201D3CB025E
:1028F000C01A5241830A8B4201D38B02C01A524143
:10290000430A8B4201D34B02C01A5241030A8B4245
:1029100001D30B02C01A5241CDD2C3098B4201D35D
:10292000CB01C01A524183098B4201D38B01C01ADB
:10293000524143098B4201D34B01C01A5241030952
:102940008B4201D30B01C01A5241C3088B4201D301
:10295000CB00C01A524183088B4201D38B00C01AAE
:10296000524143088B4201D34B00C01A5241411AD5
:10297000524110007047CA0F00D04942031000D3E3
:102980004042534000229C4603098B422DD3030A48
:102990008B4212D38901FC2212BA030A8B420CD358
:1029A000890192118B4208D3890192118B4204D381
:1029B000890137D0921100E08909C3098B4201D304
:1029C000CB01C01A524183098B4201D38B01C01A3B
:1029D000524143098B4201D34B01C01A52410309B2
:1029E0008B4201D30B01C01A5241C3088B4201D361
:1029F000CB00C01A524183088B4201D38B00C01A0E
:102A00005241D9D243088B4201D34B00C01A5241E4
:102A1000411A00D201465241104663465B1000D372
:102A20004042704763465B1000D3404201B500212D
:102A3000004201D0C9430846C046C04602BD00005E
:102A4000000000000000010203040607080900005E
:102A5000000001020304030406080C1018203000D3
:102A60000000000004000000020000000800000058
:102A7000902A000800000020100000001C0100083F
:102A8000A02A000810000020500700003C010008A8
:102A90000100000004000000000020000000000011
:04000005080000C12E
:00000001FF
